{
  "address": "0xEE7ff790277fF593282F3e4C2877966018788755",
  "abi": [
    {
      "inputs": [
        {
          "internalType": "contract ERC20",
          "name": "_token",
          "type": "address"
        },
        {
          "internalType": "address",
          "name": "_libAddressManager",
          "type": "address"
        }
      ],
      "stateMutability": "nonpayable",
      "type": "constructor"
    },
    {
      "inputs": [
        {
          "internalType": "address",
          "name": "",
          "type": "address"
        }
      ],
      "name": "bonds",
      "outputs": [
        {
          "internalType": "enum iOVM_BondManager.State",
          "name": "state",
          "type": "uint8"
        },
        {
          "internalType": "uint32",
          "name": "withdrawalTimestamp",
          "type": "uint32"
        },
        {
          "internalType": "uint256",
          "name": "firstDisputeAt",
          "type": "uint256"
        },
        {
          "internalType": "bytes32",
          "name": "earliestDisputedStateRoot",
          "type": "bytes32"
        },
        {
          "internalType": "uint256",
          "name": "earliestTimestamp",
          "type": "uint256"
        }
      ],
      "stateMutability": "view",
      "type": "function"
    },
    {
      "inputs": [
        {
          "internalType": "address",
          "name": "who",
          "type": "address"
        }
      ],
      "name": "claim",
      "outputs": [],
      "stateMutability": "nonpayable",
      "type": "function"
    },
    {
      "inputs": [],
      "name": "deposit",
      "outputs": [],
      "stateMutability": "nonpayable",
      "type": "function"
    },
    {
      "inputs": [],
      "name": "disputePeriodSeconds",
      "outputs": [
        {
          "internalType": "uint256",
          "name": "",
          "type": "uint256"
        }
      ],
      "stateMutability": "view",
      "type": "function"
    },
    {
      "inputs": [
        {
          "internalType": "bytes32",
          "name": "_preStateRoot",
          "type": "bytes32"
        },
        {
          "internalType": "address",
          "name": "publisher",
          "type": "address"
        },
        {
          "internalType": "uint256",
          "name": "timestamp",
          "type": "uint256"
        }
      ],
      "name": "finalize",
      "outputs": [],
      "stateMutability": "nonpayable",
      "type": "function"
    },
    {
      "inputs": [],
      "name": "finalizeWithdrawal",
      "outputs": [],
      "stateMutability": "nonpayable",
      "type": "function"
    },
    {
      "inputs": [
        {
          "internalType": "bytes32",
          "name": "preStateRoot",
          "type": "bytes32"
        },
        {
          "internalType": "address",
          "name": "who",
          "type": "address"
        }
      ],
      "name": "getGasSpent",
      "outputs": [
        {
          "internalType": "uint256",
          "name": "",
          "type": "uint256"
        }
      ],
      "stateMutability": "view",
      "type": "function"
    },
    {
      "inputs": [
        {
          "internalType": "address",
          "name": "who",
          "type": "address"
        }
      ],
      "name": "isCollateralized",
      "outputs": [
        {
          "internalType": "bool",
          "name": "",
          "type": "bool"
        }
      ],
      "stateMutability": "view",
      "type": "function"
    },
    {
      "inputs": [],
      "name": "multiFraudProofPeriod",
      "outputs": [
        {
          "internalType": "uint256",
          "name": "",
          "type": "uint256"
        }
      ],
      "stateMutability": "view",
      "type": "function"
    },
    {
      "inputs": [
        {
          "internalType": "bytes32",
          "name": "_preStateRoot",
          "type": "bytes32"
        },
        {
          "internalType": "bytes32",
          "name": "_txHash",
          "type": "bytes32"
        },
        {
          "internalType": "address",
          "name": "who",
          "type": "address"
        },
        {
          "internalType": "uint256",
          "name": "gasSpent",
          "type": "uint256"
        }
      ],
      "name": "recordGasSpent",
      "outputs": [],
      "stateMutability": "nonpayable",
      "type": "function"
    },
    {
      "inputs": [],
      "name": "requiredCollateral",
      "outputs": [
        {
          "internalType": "uint256",
          "name": "",
          "type": "uint256"
        }
      ],
      "stateMutability": "view",
      "type": "function"
    },
    {
      "inputs": [
        {
          "internalType": "string",
          "name": "_name",
          "type": "string"
        }
      ],
      "name": "resolve",
      "outputs": [
        {
          "internalType": "address",
          "name": "_contract",
          "type": "address"
        }
      ],
      "stateMutability": "view",
      "type": "function"
    },
    {
      "inputs": [],
      "name": "startWithdrawal",
      "outputs": [],
      "stateMutability": "nonpayable",
      "type": "function"
    },
    {
      "inputs": [],
      "name": "token",
      "outputs": [
        {
          "internalType": "contract ERC20",
          "name": "",
          "type": "address"
        }
      ],
      "stateMutability": "view",
      "type": "function"
    },
    {
      "inputs": [
        {
          "internalType": "bytes32",
          "name": "",
          "type": "bytes32"
        }
      ],
      "name": "witnessProviders",
      "outputs": [
        {
          "internalType": "bool",
          "name": "canClaim",
          "type": "bool"
        },
        {
          "internalType": "uint256",
          "name": "total",
          "type": "uint256"
        }
      ],
      "stateMutability": "view",
      "type": "function"
    }
  ],
  "transactionHash": "0x6bb948ad4d41530f9bde95dbc714a8e246a2985862b1ac1b5575ee30338d5015",
  "args": [
    "0x0000000000000000000000000000000000000000",
    "0x30ADa33Cb29e6478D3F3Ed3b089aC7A0b34837f7"
  ],
  "solcInputHash": "167e1592944606d9f946a16ee2ddffd3",
  "bytecode": "0x60a060405234801561001057600080fd5b5060405161130b38038061130b8339818101604052604081101561003357600080fd5b508051602090910151600080546001600160a01b0319166001600160a01b03928316178155606083901b6001600160601b031916608052911690611278906100939039806106f45280610d6d5280610ea15280610fe252506112786000f3fe608060405234801561001057600080fd5b50600436106100f55760003560e01c8063abfbbe1311610097578063d0e30db011610066578063d0e30db0146102f2578063dc6453dc146102fa578063fc0c546a14610326578063fe10d7741461032e576100f5565b8063abfbbe13146102a8578063b53105a3146102da578063bc2f8dd8146102e2578063c5b6aa2f146102ea576100f5565b80631e16e92f116100d35780631e16e92f1461014e5780631e83409a14610188578063461a4478146101ae5780635b7c615f14610270576100f5565b806302ad4d2a146100fa5780630756183b146101345780631e0983bd14610134575b600080fd5b6101206004803603602081101561011057600080fd5b50356001600160a01b0316610397565b604080519115158252519081900360200190f35b61013c6103c9565b60408051918252519081900360200190f35b6101866004803603608081101561016457600080fd5b508035906020810135906001600160a01b0360408201351690606001356103d0565b005b6101866004803603602081101561019e57600080fd5b50356001600160a01b0316610569565b610254600480360360208110156101c457600080fd5b8101906020810181356401000000008111156101df57600080fd5b8201836020820111156101f157600080fd5b8035906020019184600183028401116401000000008311171561021357600080fd5b91908080601f0160208091040260200160405190810160405280939291908181526020018383808284376000920191909152509295506107f6945050505050565b604080516001600160a01b039092168252519081900360200190f35b61028d6004803603602081101561028657600080fd5b50356108d2565b60408051921515835260208301919091528051918290030190f35b610186600480360360608110156102be57600080fd5b508035906001600160a01b0360208201351690604001356108f1565b61013c610afc565b610186610b08565b610186610c2e565b610186610e6d565b61013c6004803603604081101561031057600080fd5b50803590602001356001600160a01b0316610fb5565b610254610fe0565b6103546004803603602081101561034457600080fd5b50356001600160a01b0316611004565b6040518086600281111561036457fe5b81526020018563ffffffff1681526020018481526020018381526020018281526020019550505050505060405180910390f35b600060016001600160a01b03831660009081526001602052604090205460ff1660028111156103c257fe5b1492915050565b62093a8081565b60006104046040518060400160405280601181526020017027ab26afa33930bab22b32b934b334b2b960791b8152506107f6565b6001600160a01b031663b48ec82086866040518363ffffffff1660e01b8152600401808381526020018281526020019250505060206040518083038186803b15801561044f57600080fd5b505afa158015610463573d6000803e3d6000fd5b505050506040513d602081101561047957600080fd5b5051604080516080810190915260518082529192506001600160a01b03831633149161112d60208301399061052c5760405162461bcd60e51b81526004018080602001828103825283818151815260200191508051906020019080838360005b838110156104f15781810151838201526020016104d9565b50505050905090810190601f16801561051e5780820380516001836020036101000a031916815260200191505b509250505060405180910390fd5b50506000938452600260208181526040808720600181018054860190556001600160a01b0390951687529390910190529220805490920190915550565b600060016000836001600160a01b03166001600160a01b03168152602001908152602001600020905062093a808160010154014210156040518060600160405280602e81526020016111b0602e9139906106045760405162461bcd60e51b81526020600482018181528351602484015283519092839260449091019190850190808383600083156104f15781810151838201526020016104d9565b50600280820154600081815260209283526040908190208054825160608101909352603e8084529394919360ff909116929161103c90830139906106895760405162461bcd60e51b81526020600482018181528351602484015283519092839260449091019190850190808383600083156104f15781810151838201526020016104d9565b5060018101543360009081526002808401602052604082205491920290670de0b6b3a764000002816106b757fe5b3360008181526002860160209081526040808320839055805163a9059cbb60e01b81526004810194909452949093046024830181905293519394507f00000000000000000000000000000000000000000000000000000000000000006001600160a01b03169363a9059cbb936044808501949193918390030190829087803b15801561074257600080fd5b505af1158015610756573d6000803e3d6000fd5b505050506040513d602081101561076c57600080fd5b50516040805180820190915260208082527f426f6e644d616e616765723a20436f756c64206e6f7420706f737420626f6e6490820152906107ee5760405162461bcd60e51b81526020600482018181528351602484015283519092839260449091019190850190808383600083156104f15781810151838201526020016104d9565b505050505050565b6000805460405163bf40fac160e01b81526020600482018181528551602484015285516001600160a01b039094169363bf40fac19387938392604490920191908501908083838b5b8381101561085657818101518382015260200161083e565b50505050905090810190601f1680156108835780820380516001836020036101000a031916815260200191505b509250505060206040518083038186803b1580156108a057600080fd5b505afa1580156108b4573d6000803e3d6000fd5b505050506040513d60208110156108ca57600080fd5b505192915050565b6002602052600090815260409020805460019091015460ff9091169082565b6109236040518060400160405280601181526020017027ab26afa33930bab22b32b934b334b2b960791b8152506107f6565b6001600160a01b0316336001600160a01b0316146040518060600160405280603b8152602001611208603b91399061099c5760405162461bcd60e51b81526020600482018181528351602484015283519092839260449091019190850190808383600083156104f15781810151838201526020016104d9565b5060008381526002602090815260409182902054825160808101909352604b80845260ff9091161592916110bb9083013990610a195760405162461bcd60e51b81526020600482018181528351602484015283519092839260449091019190850190808383600083156104f15781810151838201526020016104d9565b506000838152600260209081526040808320805460ff191660019081179091556001600160a01b03861684529182905290912090810154610a6d574260018201556002810184905560038101829055610a9c565b62093a8081600101540142108015610a885750806003015482105b15610a9c5760028101849055600381018290555b8054610100900463ffffffff1615801590610ac85750805462093a80830161010090910463ffffffff16115b8015610ae357506002815460ff166002811115610ae157fe5b145b15610aee5750610af7565b805460ff191690555b505050565b670de0b6b3a764000081565b3360009081526001602090815260409182902080548351606081019094526027808552919361010090910463ffffffff1615929091906111069083013990610b915760405162461bcd60e51b81526020600482018181528351602484015283519092839260449091019190850190808383600083156104f15781810151838201526020016104d9565b506001815460ff166002811115610ba457fe5b146040518060600160405280602a81526020016111de602a913990610c0a5760405162461bcd60e51b81526020600482018181528351602484015283519092839260449091019190850190808383600083156104f15781810151838201526020016104d9565b508054600260ff199091161764ffffffff0019166101004263ffffffff1602179055565b3360009081526001602090815260409182902080548351606081019094526032808552919363ffffffff6101009092049190911662093a80014210159290919061117e9083013990610cc15760405162461bcd60e51b81526020600482018181528351602484015283519092839260449091019190850190808383600083156104f15781810151838201526020016104d9565b506002815460ff166002811115610cd457fe5b1460405180608001604052806041815260200161107a6041913990610d3a5760405162461bcd60e51b81526020600482018181528351602484015283519092839260449091019190850190808383600083156104f15781810151838201526020016104d9565b50805464ffffffffff191681556040805163a9059cbb60e01b8152336004820152670de0b6b3a7640000602482015290517f00000000000000000000000000000000000000000000000000000000000000006001600160a01b03169163a9059cbb9160448083019260209291908290030181600087803b158015610dbd57600080fd5b505af1158015610dd1573d6000803e3d6000fd5b505050506040513d6020811015610de757600080fd5b50516040805180820190915260208082527f426f6e644d616e616765723a20436f756c64206e6f7420706f737420626f6e649082015290610e695760405162461bcd60e51b81526020600482018181528351602484015283519092839260449091019190850190808383600083156104f15781810151838201526020016104d9565b5050565b604080516323b872dd60e01b8152336004820152306024820152670de0b6b3a7640000604482015290516001600160a01b037f000000000000000000000000000000000000000000000000000000000000000016916323b872dd9160648083019260209291908290030181600087803b158015610ee957600080fd5b505af1158015610efd573d6000803e3d6000fd5b505050506040513d6020811015610f1357600080fd5b50516040805180820190915260208082527f426f6e644d616e616765723a20436f756c64206e6f7420706f737420626f6e649082015290610f955760405162461bcd60e51b81526020600482018181528351602484015283519092839260449091019190850190808383600083156104f15781810151838201526020016104d9565b50336000908152600160208190526040909120805460ff19169091179055565b60008281526002602081815260408084206001600160a01b0386168552909201905290205492915050565b7f000000000000000000000000000000000000000000000000000000000000000081565b6001602081905260009182526040909120805491810154600282015460039092015460ff841693610100900463ffffffff1692908556fe426f6e644d616e616765723a2043616e6e6f7420636c61696d207965742e2044697370757465206d7573742062652066696e616c697a6564206669727374426f6e644d616e616765723a2043616e6e6f742066696e616c697a65207769746864726177616c2c20796f752070726f6261626c7920676f7420736c6173686564426f6e644d616e616765723a2046726175642070726f6f6620666f722074686973207072652d737461746520726f6f742068617320616c7265616479206265656e2066696e616c697a6564426f6e644d616e616765723a205769746864726177616c20616c72656164792070656e64696e67426f6e644d616e616765723a204f6e6c7920746865207472616e736974696f6e657220666f722074686973207072652d737461746520726f6f74206d61792063616c6c20746869732066756e6374696f6e426f6e644d616e616765723a20546f6f206561726c7920746f2066696e616c697a6520796f7572207769746864726177616c426f6e644d616e616765723a205761697420666f72206f7468657220706f74656e7469616c206469737075746573426f6e644d616e616765723a2057726f6e6720626f6e6420737461746520666f722070726f706f736572426f6e644d616e616765723a204f6e6c7920746865206672617564207665726966696572206d61792063616c6c20746869732066756e6374696f6ea2646970667358221220812f7206bb4779720cf03f1e4ab5e1deb0c906eb92fc96852dc855750584dcdb64736f6c63430007060033",
  "devdoc": {
    "details": "The Bond Manager contract handles deposits in the form of an ERC20 token from bonded  Proposers. It also handles the accounting of gas costs spent by a Verifier during the course of a fraud proof. In the event of a successful fraud proof, the fraudulent Proposer's bond is slashed,  and the Verifier's gas costs are refunded.  Compiler used: solc Runtime target: EVM",
    "kind": "dev",
    "methods": {},
    "title": "OVM_BondManager",
    "version": 1
  },
  "userdoc": {
    "kind": "user",
    "methods": {
      "bonds(address)": {
        "notice": "The bonds posted by each proposer"
      },
      "claim(address)": {
        "notice": "Claims the user's reward for the witnesses they provided for the earliest disputed state root of the designated publisher"
      },
      "constructor": {
        "notice": "Initializes with a ERC20 token to be used for the fidelity bonds and with the Address Manager"
      },
      "deposit()": {
        "notice": "Sequencers call this function to post collateral which will be used for the `appendBatch` call"
      },
      "disputePeriodSeconds()": {
        "notice": "The dispute period"
      },
      "finalize(bytes32,address,uint256)": {
        "notice": "Slashes + distributes rewards or frees up the sequencer's bond, only called by `FraudVerifier.finalizeFraudVerification`"
      },
      "finalizeWithdrawal()": {
        "notice": "Finalizes a pending withdrawal from a publisher"
      },
      "getGasSpent(bytes32,address)": {
        "notice": "Gets how many witnesses the user has provided for the state root"
      },
      "isCollateralized(address)": {
        "notice": "Checks if the user is collateralized"
      },
      "multiFraudProofPeriod()": {
        "notice": "The period to find the earliest fraud proof for a publisher"
      },
      "recordGasSpent(bytes32,bytes32,address,uint256)": {
        "notice": "Adds `who` to the list of witnessProviders for the provided `preStateRoot`."
      },
      "requiredCollateral()": {
        "notice": "The minimum collateral a sequencer must post"
      },
      "startWithdrawal()": {
        "notice": "Starts the withdrawal for a publisher"
      },
      "token()": {
        "notice": "The bond token"
      },
      "witnessProviders(bytes32)": {
        "notice": "For each pre-state root, there's an array of witnessProviders that must be rewarded for posting witnesses"
      }
    },
    "version": 1
  },
  "storageLayout": {
    "storage": [
      {
        "astId": 12337,
        "contract": "contracts/optimistic-ethereum/OVM/verification/OVM_BondManager.sol:OVM_BondManager",
        "label": "libAddressManager",
        "offset": 0,
        "slot": "0",
        "type": "t_contract(Lib_AddressManager)12330"
      },
      {
        "astId": 8405,
        "contract": "contracts/optimistic-ethereum/OVM/verification/OVM_BondManager.sol:OVM_BondManager",
        "label": "bonds",
        "offset": 0,
        "slot": "1",
        "type": "t_mapping(t_address,t_struct(Bond)11292_storage)"
      },
      {
        "astId": 8410,
        "contract": "contracts/optimistic-ethereum/OVM/verification/OVM_BondManager.sol:OVM_BondManager",
        "label": "witnessProviders",
        "offset": 0,
        "slot": "2",
        "type": "t_mapping(t_bytes32,t_struct(Rewards)11301_storage)"
      }
    ],
    "types": {
      "t_address": {
        "encoding": "inplace",
        "label": "address",
        "numberOfBytes": "20"
      },
      "t_bool": {
        "encoding": "inplace",
        "label": "bool",
        "numberOfBytes": "1"
      },
      "t_bytes32": {
        "encoding": "inplace",
        "label": "bytes32",
        "numberOfBytes": "32"
      },
      "t_contract(Lib_AddressManager)12330": {
        "encoding": "inplace",
        "label": "contract Lib_AddressManager",
        "numberOfBytes": "20"
      },
      "t_enum(State)11281": {
        "encoding": "inplace",
        "label": "enum iOVM_BondManager.State",
        "numberOfBytes": "1"
      },
      "t_mapping(t_address,t_struct(Bond)11292_storage)": {
        "encoding": "mapping",
        "key": "t_address",
        "label": "mapping(address => struct iOVM_BondManager.Bond)",
        "numberOfBytes": "32",
        "value": "t_struct(Bond)11292_storage"
      },
      "t_mapping(t_address,t_uint256)": {
        "encoding": "mapping",
        "key": "t_address",
        "label": "mapping(address => uint256)",
        "numberOfBytes": "32",
        "value": "t_uint256"
      },
      "t_mapping(t_bytes32,t_struct(Rewards)11301_storage)": {
        "encoding": "mapping",
        "key": "t_bytes32",
        "label": "mapping(bytes32 => struct iOVM_BondManager.Rewards)",
        "numberOfBytes": "32",
        "value": "t_struct(Rewards)11301_storage"
      },
      "t_struct(Bond)11292_storage": {
        "encoding": "inplace",
        "label": "struct iOVM_BondManager.Bond",
        "members": [
          {
            "astId": 11283,
            "contract": "contracts/optimistic-ethereum/OVM/verification/OVM_BondManager.sol:OVM_BondManager",
            "label": "state",
            "offset": 0,
            "slot": "0",
            "type": "t_enum(State)11281"
          },
          {
            "astId": 11285,
            "contract": "contracts/optimistic-ethereum/OVM/verification/OVM_BondManager.sol:OVM_BondManager",
            "label": "withdrawalTimestamp",
            "offset": 1,
            "slot": "0",
            "type": "t_uint32"
          },
          {
            "astId": 11287,
            "contract": "contracts/optimistic-ethereum/OVM/verification/OVM_BondManager.sol:OVM_BondManager",
            "label": "firstDisputeAt",
            "offset": 0,
            "slot": "1",
            "type": "t_uint256"
          },
          {
            "astId": 11289,
            "contract": "contracts/optimistic-ethereum/OVM/verification/OVM_BondManager.sol:OVM_BondManager",
            "label": "earliestDisputedStateRoot",
            "offset": 0,
            "slot": "2",
            "type": "t_bytes32"
          },
          {
            "astId": 11291,
            "contract": "contracts/optimistic-ethereum/OVM/verification/OVM_BondManager.sol:OVM_BondManager",
            "label": "earliestTimestamp",
            "offset": 0,
            "slot": "3",
            "type": "t_uint256"
          }
        ],
        "numberOfBytes": "128"
      },
      "t_struct(Rewards)11301_storage": {
        "encoding": "inplace",
        "label": "struct iOVM_BondManager.Rewards",
        "members": [
          {
            "astId": 11294,
            "contract": "contracts/optimistic-ethereum/OVM/verification/OVM_BondManager.sol:OVM_BondManager",
            "label": "canClaim",
            "offset": 0,
            "slot": "0",
            "type": "t_bool"
          },
          {
            "astId": 11296,
            "contract": "contracts/optimistic-ethereum/OVM/verification/OVM_BondManager.sol:OVM_BondManager",
            "label": "total",
            "offset": 0,
            "slot": "1",
            "type": "t_uint256"
          },
          {
            "astId": 11300,
            "contract": "contracts/optimistic-ethereum/OVM/verification/OVM_BondManager.sol:OVM_BondManager",
            "label": "gasSpent",
            "offset": 0,
            "slot": "2",
            "type": "t_mapping(t_address,t_uint256)"
          }
        ],
        "numberOfBytes": "96"
      },
      "t_uint256": {
        "encoding": "inplace",
        "label": "uint256",
        "numberOfBytes": "32"
      },
      "t_uint32": {
        "encoding": "inplace",
        "label": "uint32",
        "numberOfBytes": "4"
      }
    }
  }
}