{
  "address": "0x13E0344eB59423F9f34B3f4394aE922b48E86275",
  "abi": [
    {
      "inputs": [
        {
          "internalType": "address",
          "name": "_libAddressManager",
          "type": "address"
        },
        {
          "components": [
            {
              "internalType": "uint256",
              "name": "minTransactionGasLimit",
              "type": "uint256"
            },
            {
              "internalType": "uint256",
              "name": "maxTransactionGasLimit",
              "type": "uint256"
            },
            {
              "internalType": "uint256",
              "name": "maxGasPerQueuePerEpoch",
              "type": "uint256"
            },
            {
              "internalType": "uint256",
              "name": "secondsPerEpoch",
              "type": "uint256"
            }
          ],
          "internalType": "struct iOVM_ExecutionManager.GasMeterConfig",
          "name": "_gasMeterConfig",
          "type": "tuple"
        },
        {
          "components": [
            {
              "internalType": "uint256",
              "name": "ovmCHAINID",
              "type": "uint256"
            }
          ],
          "internalType": "struct iOVM_ExecutionManager.GlobalContext",
          "name": "_globalContext",
          "type": "tuple"
        }
      ],
      "stateMutability": "nonpayable",
      "type": "constructor"
    },
    {
      "inputs": [],
      "name": "getMaxTransactionGasLimit",
      "outputs": [
        {
          "internalType": "uint256",
          "name": "_maxTransactionGasLimit",
          "type": "uint256"
        }
      ],
      "stateMutability": "view",
      "type": "function"
    },
    {
      "inputs": [],
      "name": "ovmADDRESS",
      "outputs": [
        {
          "internalType": "address",
          "name": "_ADDRESS",
          "type": "address"
        }
      ],
      "stateMutability": "view",
      "type": "function"
    },
    {
      "inputs": [
        {
          "internalType": "uint256",
          "name": "_gasLimit",
          "type": "uint256"
        },
        {
          "internalType": "address",
          "name": "_address",
          "type": "address"
        },
        {
          "internalType": "bytes",
          "name": "_calldata",
          "type": "bytes"
        }
      ],
      "name": "ovmCALL",
      "outputs": [
        {
          "internalType": "bool",
          "name": "_success",
          "type": "bool"
        },
        {
          "internalType": "bytes",
          "name": "_returndata",
          "type": "bytes"
        }
      ],
      "stateMutability": "nonpayable",
      "type": "function"
    },
    {
      "inputs": [],
      "name": "ovmCALLER",
      "outputs": [
        {
          "internalType": "address",
          "name": "_CALLER",
          "type": "address"
        }
      ],
      "stateMutability": "view",
      "type": "function"
    },
    {
      "inputs": [],
      "name": "ovmCHAINID",
      "outputs": [
        {
          "internalType": "uint256",
          "name": "_CHAINID",
          "type": "uint256"
        }
      ],
      "stateMutability": "view",
      "type": "function"
    },
    {
      "inputs": [
        {
          "internalType": "bytes",
          "name": "_bytecode",
          "type": "bytes"
        }
      ],
      "name": "ovmCREATE",
      "outputs": [
        {
          "internalType": "address",
          "name": "_contract",
          "type": "address"
        }
      ],
      "stateMutability": "nonpayable",
      "type": "function"
    },
    {
      "inputs": [
        {
          "internalType": "bytes",
          "name": "_bytecode",
          "type": "bytes"
        },
        {
          "internalType": "bytes32",
          "name": "_salt",
          "type": "bytes32"
        }
      ],
      "name": "ovmCREATE2",
      "outputs": [
        {
          "internalType": "address",
          "name": "_contract",
          "type": "address"
        }
      ],
      "stateMutability": "nonpayable",
      "type": "function"
    },
    {
      "inputs": [
        {
          "internalType": "bytes32",
          "name": "_messageHash",
          "type": "bytes32"
        },
        {
          "internalType": "uint8",
          "name": "_v",
          "type": "uint8"
        },
        {
          "internalType": "bytes32",
          "name": "_r",
          "type": "bytes32"
        },
        {
          "internalType": "bytes32",
          "name": "_s",
          "type": "bytes32"
        }
      ],
      "name": "ovmCREATEEOA",
      "outputs": [],
      "stateMutability": "nonpayable",
      "type": "function"
    },
    {
      "inputs": [
        {
          "internalType": "uint256",
          "name": "_gasLimit",
          "type": "uint256"
        },
        {
          "internalType": "address",
          "name": "_address",
          "type": "address"
        },
        {
          "internalType": "bytes",
          "name": "_calldata",
          "type": "bytes"
        }
      ],
      "name": "ovmDELEGATECALL",
      "outputs": [
        {
          "internalType": "bool",
          "name": "_success",
          "type": "bool"
        },
        {
          "internalType": "bytes",
          "name": "_returndata",
          "type": "bytes"
        }
      ],
      "stateMutability": "nonpayable",
      "type": "function"
    },
    {
      "inputs": [
        {
          "internalType": "address",
          "name": "_contract",
          "type": "address"
        },
        {
          "internalType": "uint256",
          "name": "_offset",
          "type": "uint256"
        },
        {
          "internalType": "uint256",
          "name": "_length",
          "type": "uint256"
        }
      ],
      "name": "ovmEXTCODECOPY",
      "outputs": [
        {
          "internalType": "bytes",
          "name": "_code",
          "type": "bytes"
        }
      ],
      "stateMutability": "nonpayable",
      "type": "function"
    },
    {
      "inputs": [
        {
          "internalType": "address",
          "name": "_contract",
          "type": "address"
        }
      ],
      "name": "ovmEXTCODEHASH",
      "outputs": [
        {
          "internalType": "bytes32",
          "name": "_EXTCODEHASH",
          "type": "bytes32"
        }
      ],
      "stateMutability": "nonpayable",
      "type": "function"
    },
    {
      "inputs": [
        {
          "internalType": "address",
          "name": "_contract",
          "type": "address"
        }
      ],
      "name": "ovmEXTCODESIZE",
      "outputs": [
        {
          "internalType": "uint256",
          "name": "_EXTCODESIZE",
          "type": "uint256"
        }
      ],
      "stateMutability": "nonpayable",
      "type": "function"
    },
    {
      "inputs": [],
      "name": "ovmGASLIMIT",
      "outputs": [
        {
          "internalType": "uint256",
          "name": "_GASLIMIT",
          "type": "uint256"
        }
      ],
      "stateMutability": "view",
      "type": "function"
    },
    {
      "inputs": [],
      "name": "ovmGETNONCE",
      "outputs": [
        {
          "internalType": "uint256",
          "name": "_nonce",
          "type": "uint256"
        }
      ],
      "stateMutability": "nonpayable",
      "type": "function"
    },
    {
      "inputs": [],
      "name": "ovmL1QUEUEORIGIN",
      "outputs": [
        {
          "internalType": "enum Lib_OVMCodec.QueueOrigin",
          "name": "_queueOrigin",
          "type": "uint8"
        }
      ],
      "stateMutability": "view",
      "type": "function"
    },
    {
      "inputs": [],
      "name": "ovmL1TXORIGIN",
      "outputs": [
        {
          "internalType": "address",
          "name": "_l1TxOrigin",
          "type": "address"
        }
      ],
      "stateMutability": "view",
      "type": "function"
    },
    {
      "inputs": [],
      "name": "ovmNUMBER",
      "outputs": [
        {
          "internalType": "uint256",
          "name": "_NUMBER",
          "type": "uint256"
        }
      ],
      "stateMutability": "view",
      "type": "function"
    },
    {
      "inputs": [
        {
          "internalType": "bytes",
          "name": "_data",
          "type": "bytes"
        }
      ],
      "name": "ovmREVERT",
      "outputs": [],
      "stateMutability": "nonpayable",
      "type": "function"
    },
    {
      "inputs": [
        {
          "internalType": "uint256",
          "name": "_nonce",
          "type": "uint256"
        }
      ],
      "name": "ovmSETNONCE",
      "outputs": [],
      "stateMutability": "nonpayable",
      "type": "function"
    },
    {
      "inputs": [
        {
          "internalType": "bytes32",
          "name": "_key",
          "type": "bytes32"
        }
      ],
      "name": "ovmSLOAD",
      "outputs": [
        {
          "internalType": "bytes32",
          "name": "_value",
          "type": "bytes32"
        }
      ],
      "stateMutability": "nonpayable",
      "type": "function"
    },
    {
      "inputs": [
        {
          "internalType": "bytes32",
          "name": "_key",
          "type": "bytes32"
        },
        {
          "internalType": "bytes32",
          "name": "_value",
          "type": "bytes32"
        }
      ],
      "name": "ovmSSTORE",
      "outputs": [],
      "stateMutability": "nonpayable",
      "type": "function"
    },
    {
      "inputs": [
        {
          "internalType": "uint256",
          "name": "_gasLimit",
          "type": "uint256"
        },
        {
          "internalType": "address",
          "name": "_address",
          "type": "address"
        },
        {
          "internalType": "bytes",
          "name": "_calldata",
          "type": "bytes"
        }
      ],
      "name": "ovmSTATICCALL",
      "outputs": [
        {
          "internalType": "bool",
          "name": "_success",
          "type": "bool"
        },
        {
          "internalType": "bytes",
          "name": "_returndata",
          "type": "bytes"
        }
      ],
      "stateMutability": "nonpayable",
      "type": "function"
    },
    {
      "inputs": [],
      "name": "ovmTIMESTAMP",
      "outputs": [
        {
          "internalType": "uint256",
          "name": "_TIMESTAMP",
          "type": "uint256"
        }
      ],
      "stateMutability": "view",
      "type": "function"
    },
    {
      "inputs": [
        {
          "internalType": "string",
          "name": "_name",
          "type": "string"
        }
      ],
      "name": "resolve",
      "outputs": [
        {
          "internalType": "address",
          "name": "_contract",
          "type": "address"
        }
      ],
      "stateMutability": "view",
      "type": "function"
    },
    {
      "inputs": [
        {
          "components": [
            {
              "internalType": "uint256",
              "name": "timestamp",
              "type": "uint256"
            },
            {
              "internalType": "uint256",
              "name": "blockNumber",
              "type": "uint256"
            },
            {
              "internalType": "enum Lib_OVMCodec.QueueOrigin",
              "name": "l1QueueOrigin",
              "type": "uint8"
            },
            {
              "internalType": "address",
              "name": "l1TxOrigin",
              "type": "address"
            },
            {
              "internalType": "address",
              "name": "entrypoint",
              "type": "address"
            },
            {
              "internalType": "uint256",
              "name": "gasLimit",
              "type": "uint256"
            },
            {
              "internalType": "bytes",
              "name": "data",
              "type": "bytes"
            }
          ],
          "internalType": "struct Lib_OVMCodec.Transaction",
          "name": "_transaction",
          "type": "tuple"
        },
        {
          "internalType": "address",
          "name": "_ovmStateManager",
          "type": "address"
        }
      ],
      "name": "run",
      "outputs": [],
      "stateMutability": "nonpayable",
      "type": "function"
    },
    {
      "inputs": [
        {
          "internalType": "address",
          "name": "_address",
          "type": "address"
        },
        {
          "internalType": "bytes",
          "name": "_bytecode",
          "type": "bytes"
        }
      ],
      "name": "safeCREATE",
      "outputs": [],
      "stateMutability": "nonpayable",
      "type": "function"
    },
    {
      "inputs": [
        {
          "components": [
            {
              "internalType": "uint256",
              "name": "timestamp",
              "type": "uint256"
            },
            {
              "internalType": "uint256",
              "name": "blockNumber",
              "type": "uint256"
            },
            {
              "internalType": "enum Lib_OVMCodec.QueueOrigin",
              "name": "l1QueueOrigin",
              "type": "uint8"
            },
            {
              "internalType": "address",
              "name": "l1TxOrigin",
              "type": "address"
            },
            {
              "internalType": "address",
              "name": "entrypoint",
              "type": "address"
            },
            {
              "internalType": "uint256",
              "name": "gasLimit",
              "type": "uint256"
            },
            {
              "internalType": "bytes",
              "name": "data",
              "type": "bytes"
            }
          ],
          "internalType": "struct Lib_OVMCodec.Transaction",
          "name": "_transaction",
          "type": "tuple"
        },
        {
          "internalType": "address",
          "name": "_from",
          "type": "address"
        },
        {
          "internalType": "contract iOVM_StateManager",
          "name": "_ovmStateManager",
          "type": "address"
        }
      ],
      "name": "simulateMessage",
      "outputs": [
        {
          "internalType": "bool",
          "name": "",
          "type": "bool"
        },
        {
          "internalType": "bytes",
          "name": "",
          "type": "bytes"
        }
      ],
      "stateMutability": "nonpayable",
      "type": "function"
    }
  ],
  "transactionHash": "0x36af51a4aa6e814bb6a7351d24ae3170f49ab7645f84a06a88a49368369f233b",
  "args": [
    "0xe32CEbDb70aC8572Ebee537507784089Fb96a8Ad",
    {
      "minTransactionGasLimit": 20000,
      "maxTransactionGasLimit": 9000000,
      "maxGasPerQueuePerEpoch": 9000000,
      "secondsPerEpoch": 0
    },
    {
      "ovmCHAINID": 10
    }
  ],
  "solcInputHash": "167e1592944606d9f946a16ee2ddffd3",
  "bytecode": "0x60806040523480156200001157600080fd5b50604051620039ae380380620039ae8339810160408190526200003491620001e9565b600080546001600160a01b0319166001600160a01b03851617905560408051808201909152601181527027ab26afa9b0b332ba3ca1b432b1b5b2b960791b60208201526200008290620000cb565b600180546001600160a01b0319166001600160a01b039290921691909117905581516003556020820151600455604082015160055560609091015160065551600755506200028e565b6000805460405163bf40fac160e01b81526020600482018181528551602484015285516001600160a01b039094169363bf40fac19387938392604490920191908501908083838b5b838110156200012d57818101518382015260200162000113565b50505050905090810190601f1680156200015b5780820380516001836020036101000a031916815260200191505b509250505060206040518083038186803b1580156200017957600080fd5b505afa1580156200018e573d6000803e3d6000fd5b505050506040513d6020811015620001a557600080fd5b505192915050565b600060208284031215620001bf578081fd5b604051602081016001600160401b0381118282101715620001dc57fe5b6040529151825250919050565b600080600083850360c0811215620001ff578384fd5b84516001600160a01b038116811462000216578485fd5b93506080601f19820112156200022a578283fd5b50604051608081016001600160401b03811182821017156200024857fe5b80604052506020850151815260408501516020820152606085015160408201526080850151606082015280925050620002858560a08601620001ad565b90509250925092565b613710806200029e6000396000f3fe60806040523480156200001157600080fd5b5060043610620001d25760003560e01c8063741a33eb1162000111578063996d79a511620000a55780639dc9dc93116200007b5780639dc9dc9314620003e4578063bdbf8c3614620003ee578063c1fb2ea214620003f8578063ffe73914146200040257620001d2565b8063996d79a514620003ac57806399ccd98b14620003b65780639be3ad6714620003cd57620001d2565b80638540661f11620000e75780638540661f146200034d57806385979f7614620003745780638bb42e15146200038b5780639058025614620003a257620001d2565b8063741a33eb14620002f9578063746c32f114620003105780638435035b146200033657620001d2565b806322bd64c01162000189578063461a4478116200015f578063461a447814620002b75780634d78009214620002ce5780635a98c36114620002e55780637350906414620002ef57620001d2565b806322bd64c0146200027257806324749d5c14620002895780632a2a7adb14620002a057620001d2565b806303daa95914620001d75780630da449d11462000206578063101185a4146200021f57806314aa2ff714620002385780631c4712a7146200025e57806320160f3a1462000268575b600080fd5b620001ee620001e8366004620027ac565b62000419565b604051620001fd919062002b83565b60405180910390f35b6200021d62000217366004620027ac565b62000463565b005b62000229620004a0565b604051620001fd919062002c74565b6200024f6200024936600462002843565b620004a9565b604051620001fd919062002b8c565b620001ee6200054a565b620001ee62000550565b6200021d62000283366004620027de565b62000556565b620001ee6200029a366004620026c2565b620005c1565b6200021d620002b136600462002843565b620005e0565b6200024f620002c83660046200296e565b620005ed565b6200021d620002df36600462002700565b620006cf565b620001ee620008b3565b6200024f620008b9565b6200021d6200030a36600462002800565b620008c8565b620003276200032136600462002753565b62000a52565b604051620001fd919062002c5f565b620001ee62000347366004620026c2565b62000a8b565b620003646200035e36600462002a76565b62000aa2565b604051620001fd92919062002c24565b620003646200038536600462002a76565b62000b1f565b620003646200039c36600462002a0d565b62000b70565b620001ee62000c4e565b6200024f62000c54565b6200024f620003c736600462002881565b62000c63565b6200021d620003de366004620029b8565b62000cfd565b6200024f62000e5b565b620001ee62000e6a565b620001ee62000e70565b620003646200041336600462002a76565b62000e8b565b6000619c4060005a905060006200042f62000c54565b90506200043d818662000f04565b93505060005a82039050808310156200045b57601080548483030190555b505050919050565b600f5460ff600160a01b90910416151560011415620004885762000488600762000fa3565b6200049d6200049662000c54565b8262000fbe565b50565b60085460ff1690565b600f5460009060ff600160a01b90910416151560011415620004d157620004d1600762000fa3565b619c4060005a90506000620004e562000c54565b9050620004f28162001035565b60006200050a826200050484620010c4565b62001157565b9050620005188187620011f3565b9450505060005a82039050808310156200053a5760108054840190556200045b565b6010805482019055505050919050565b60045490565b600b5490565b600f5460ff600160a01b909104161515600114156200057b576200057b600762000fa3565b61ea6060005a905060006200058f62000c54565b90506200059e818686620012c1565b5060005a8203905080831015620005ba57601080548483030190555b5050505050565b6000620005d8620005d28362001352565b620013e5565b90505b919050565b6200049d600282620013e9565b6000805460405163bf40fac160e01b81526020600482018181528551602484015285516001600160a01b039094169363bf40fac19387938392604490920191908501908083838b5b838110156200064f57818101518382015260200162000635565b50505050905090810190601f1680156200067d5780820380516001836020036101000a031916815260200191505b509250505060206040518083038186803b1580156200069b57600080fd5b505afa158015620006b0573d6000803e3d6000fd5b505050506040513d6020811015620006c757600080fd5b505192915050565b333014620006dd57620008af565b620006e88262001430565b620006f957620006f9600662000fa3565b6001546040516352275acd60e11b81526001600160a01b039091169063a44eb59a906200072b90849060040162002c5f565b60206040518083038186803b1580156200074457600080fd5b505afa15801562000759573d6000803e3d6000fd5b505050506040513d601f19601f820116820180604052508101906200077f91906200278a565b620007905762000790600562000fa3565b6200079b82620014c3565b6000620007a88262001530565b90506001600160a01b038116620007c557620007c5600862000fa3565b600060125460ff166009811115620007d957fe5b14620007f057601254620007f09060ff1662000fa3565b6000620007fd8262001541565b6001546040516352275acd60e11b81529192506001600160a01b03169063a44eb59a906200083090849060040162002c5f565b60206040518083038186803b1580156200084957600080fd5b505afa1580156200085e573d6000803e3d6000fd5b505050506040513d601f19601f820116820180604052508101906200088491906200278a565b620008955762000895600562000fa3565b620008ac8483620008a685620013e5565b6200155b565b50505b5050565b600a5490565b600e546001600160a01b031690565b600f5460ff600160a01b90910416151560011415620008ed57620008ed600762000fa3565b600060018585601b0185856040516000815260200160405260405162000917949392919062002c41565b6020604051602081039080840390855afa1580156200093a573d6000803e3d6000fd5b5050604051601f1901519150506001600160a01b0381166200097a576200097a604051806060016040528060388152602001620036a360389139620005e0565b620009858162001430565b620009915750620008ac565b6200099c81620014c3565b600f80546001600160a01b038381166001600160a01b03198316179092556040519116906000906003602160991b0190620009d7906200258d565b620009e3919062002b8c565b604051809103906000f08015801562000a00573d6000803e3d6000fd5b50600f80546001600160a01b0319166001600160a01b038516179055905062000a3c838262000a2f8162001541565b805190602001206200155b565b62000a4983600062000fbe565b50505050505050565b606060008260011462000a66578262000a69565b60025b905062000a8262000a7a8662001352565b85836200159c565b95945050505050565b6000620005d862000a9c8362001352565b620015be565b600060606201388060005a60408051606081018252600f546001600160a01b0390811682528916602082015260019181019190915290915062000ae881898989620015c2565b945094505060005a820390508083101562000b0b57601080548401905562000b14565b60108054820190555b505050935093915050565b60006060620186a060005a60408051606081018252600f5460ff600160a01b8204161515928201929092526001600160a01b039182168152908816602082015290915062000ae881898989620015c2565b60006060331562000b8057600080fd5b600280546001600160a01b0319166001600160a01b03851617905562000ba68562001659565b6000196011556080850151600f80546001600160a01b039283166001600160a01b03199182168117909255600e8054938816939091169290921790915560a086015160c087015160405162000bfc919062002b65565b60006040518083038160008787f1925050503d806000811462000c3c576040519150601f19603f3d011682016040523d82523d6000602084013e62000c41565b606091505b5091509150935093915050565b60075490565b600f546001600160a01b031690565b600f5460009060ff600160a01b9091041615156001141562000c8b5762000c8b600762000fa3565b619c4060005a9050600062000c9f62000c54565b905062000cac8162001035565b600062000cbb828888620016ce565b905062000cc98188620011f3565b9450505060005a820390508083101562000ceb57601080548401905562000cf4565b60108054820190555b50505092915050565b600a541562000d295760405162461bcd60e51b815260040162000d209062002d65565b60405180910390fd5b600280546001600160a01b0319166001600160a01b038381169190911791829055604051630d15d41560e41b815291169063d15d41509062000d7090339060040162002b8c565b60206040518083038186803b15801562000d8957600080fd5b505afa15801562000d9e573d6000803e3d6000fd5b505050506040513d601f19601f8201168201806040525081019062000dc491906200278a565b62000de35760405162461bcd60e51b815260040162000d209062002cf9565b62000dee8262001659565b62000e028260a00151836040015162001718565b62000e0d57620008af565b60005a905062000e326003600001548460a001510384608001518560c0015162000b1f565b505060005a8203905062000e456200174c565b5050600280546001600160a01b03191690555050565b600d546001600160a01b031690565b60095490565b600062000e8662000e8062000c54565b620010c4565b905090565b60006060619c4060005a60408051606081018252600e546001600160a01b039081168252600f549081166020830152600160a01b900460ff16151591810191909152909150600062000ee0828a8a8a620015c2565b95509550505060005a820390508083101562000b0b57601080548401905562000b14565b600062000f128383620017af565b600254604051631aaf392f60e01b81526001600160a01b0390911690631aaf392f9062000f46908690869060040162002bc4565b60206040518083038186803b15801562000f5f57600080fd5b505afa15801562000f74573d6000803e3d6000fd5b505050506040513d601f19601f8201168201806040525081019062000f9a9190620027c5565b90505b92915050565b6200049d8160405180602001604052806000815250620013e9565b62000fc982620018ff565b6002546040516374855dc360e11b81526001600160a01b039091169063e90abb869062000ffd908590859060040162002bc4565b600060405180830381600087803b1580156200101857600080fd5b505af11580156200102d573d6000803e3d6000fd5b505050505050565b600080620010885a6002602160991b018560405160240162001058919062002b8c565b60408051601f198184030181529190526020810180516001600160e01b031663b1540a0160e01b17905262000b1f565b91509150600081806020019051810190620010a491906200278a565b9050801580620010b2575082155b15620008ac57620008ac600962000fa3565b6000620010d18262001a25565b60025460405163d126199f60e01b81526001600160a01b039091169063d126199f906200110390859060040162002b8c565b60206040518083038186803b1580156200111c57600080fd5b505afa15801562001131573d6000803e3d6000fd5b505050506040513d601f19601f82011682018060405250810190620005d89190620027c5565b60408051600280825260608201909252600091829190816020015b606081526020019060019003908162001172579050509050620011958462001b7c565b81600081518110620011a357fe5b6020026020010181905250620011b98362001baa565b81600181518110620011c757fe5b60200260200101819052506000620011df8262001bc1565b905062000a82818051906020012062001bf2565b60006200121a6200120362000c54565b6200121162000e8062000c54565b60010162000fbe565b60408051606081018252600f5460ff600160a01b8204161515928201929092526001600160a01b039182168152908416602082015260006200129d825a3088886040516024016200126d92919062002bfe565b60408051601f198184030181529190526020810180516001600160e01b03166326bc004960e11b17905262001bf5565b506012805460ff19169055905080620012b857600062000a82565b50929392505050565b80620012ce848462000f04565b1415620012db576200134d565b620012e7838362001dc7565b600254604051635c17d62960e01b81526001600160a01b0390911690635c17d629906200131d9086908690869060040162002bdd565b600060405180830381600087803b1580156200133857600080fd5b505af115801562000a49573d6000803e3d6000fd5b505050565b60006200135f8262001a25565b600254604051637c8ee70360e01b81526001600160a01b0390911690637c8ee703906200139190859060040162002b8c565b60206040518083038186803b158015620013aa57600080fd5b505afa158015620013bf573d6000803e3d6000fd5b505050506040513d601f19601f82011682018060405250810190620005d89190620026e1565b3f90565b333b15801562001418576012805484919060ff191660018360098111156200140d57fe5b021790555060016000f35b600062001426848462001ee8565b9050805160208201fd5b60006200143d8262001a25565b6002546040516307a1294560e01b81526001600160a01b03909116906307a12945906200146f90859060040162002b8c565b60206040518083038186803b1580156200148857600080fd5b505afa1580156200149d573d6000803e3d6000fd5b505050506040513d601f19601f82011682018060405250810190620005d891906200278a565b620014ce8162001a25565b600254604051637e78a4d160e11b81526001600160a01b039091169063fcf149a2906200150090849060040162002b8c565b600060405180830381600087803b1580156200151b57600080fd5b505af1158015620005ba573d6000803e3d6000fd5b60008151602083016000f092915050565b6060620005d88260006200155585620015be565b6200159c565b6200156683620018ff565b6002546040516368510af960e11b81526001600160a01b039091169063d0a215f2906200131d9086908690869060040162002ba0565b60606040519050602082018101604052818152818360208301863c9392505050565b3b90565b6000606073ffffffffffffffffffffffffffffffffffff0000841673deaddeaddeaddeaddeaddeaddeaddeaddead000014156200161357505060408051602081019091526000815260019062001650565b60006064856001600160a01b0316106200163857620016328562001352565b6200163a565b845b90506200164a8787838762001bf5565b92509250505b94509492505050565b80516009556020810151600a5560a0810151600c5560408101516008805460ff1916600183818111156200168957fe5b02179055506060810151600d80546001600160a01b0319166001600160a01b03909216919091179055600554600b5560a0810151620016c89062001fb3565b60115550565b60008060ff60f81b85848680519060200120604051602001620016f5949392919062002b2c565b60405160208183030381529060405280519060200120905062000a828162001bf2565b6004546000908311156200172f5750600062000f9d565b600354831015620017435750600062000f9d565b50600192915050565b600d80546001600160a01b031990811690915560006009819055600a819055600b819055600c8190556008805460ff199081169091556010829055600e8054909316909255600f80546001600160a81b0319169055601155601280549091169055565b6175305a1015620017c657620017c6600162000fa3565b600254604051630ad2267960e01b81526001600160a01b0390911690630ad2267990620017fa908590859060040162002bc4565b60206040518083038186803b1580156200181357600080fd5b505afa15801562001828573d6000803e3d6000fd5b505050506040513d601f19601f820116820180604052508101906200184e91906200278a565b6200185f576200185f600462000fa3565b600254604051632bcdee1960e21b81526000916001600160a01b03169063af37b8649062001894908690869060040162002bc4565b602060405180830381600087803b158015620018af57600080fd5b505af1158015620018c4573d6000803e3d6000fd5b505050506040513d601f19601f82011682018060405250810190620018ea91906200278a565b9050806200134d576200134d614e2062001fc8565b6200190a8162001a25565b60025460405163011b1f7960e41b81526000916001600160a01b0316906311b1f790906200193d90859060040162002b8c565b602060405180830381600087803b1580156200195857600080fd5b505af11580156200196d573d6000803e3d6000fd5b505050506040513d601f19601f820116820180604052508101906200199391906200278a565b905080620008af57600260009054906101000a90046001600160a01b03166001600160a01b03166333f943056040518163ffffffff1660e01b8152600401600060405180830381600087803b158015620019ec57600080fd5b505af115801562001a01573d6000803e3d6000fd5b50505050620008af617530606462001a1d62000a9c8662001352565b020162001fc8565b6175305a101562001a3c5762001a3c600162000fa3565b60025460405163c8e40fbf60e01b81526001600160a01b039091169063c8e40fbf9062001a6e90849060040162002b8c565b60206040518083038186803b15801562001a8757600080fd5b505afa15801562001a9c573d6000803e3d6000fd5b505050506040513d601f19601f8201168201806040525081019062001ac291906200278a565b62001ad35762001ad3600462000fa3565b600254604051633ecdecc760e21b81526000916001600160a01b03169063fb37b31c9062001b0690859060040162002b8c565b602060405180830381600087803b15801562001b2157600080fd5b505af115801562001b36573d6000803e3d6000fd5b505050506040513d601f19601f8201168201806040525081019062001b5c91906200278a565b905080620008af57620008af617530606462001a1d62000a9c8662001352565b6060620005d88260405160200162001b95919062002b0f565b60405160208183030381529060405262001feb565b6060620005d862001bbb836200203c565b62001feb565b6060600062001bd0836200214d565b905062001beb62001be4825160c06200225a565b82620023b7565b9392505050565b90565b6040805160608082018352600e546001600160a01b039081168352600f549081166020840152600160a01b900460ff161515928201929092526000919062001c3e818862002438565b601154600062001c4e8862001fb3565b905080601160000181905550600080886001600160a01b03168a8960405162001c78919062002b65565b60006040518083038160008787f1925050503d806000811462001cb8576040519150601f19603f3d011682016040523d82523d6000602084013e62001cbd565b606091505b509150915062001cce8b8662002438565b6011548262001db05760008060008062001ce886620024ef565b92965090945092509050600484600981111562001d0157fe5b141562001d135762001d138462000fa3565b600284600981111562001d2257fe5b148062001d3b5750600584600981111562001d3957fe5b145b8062001d535750600784600981111562001d5157fe5b145b8062001d6b5750600984600981111562001d6957fe5b145b1562001d775760108290555b600284600981111562001d8657fe5b141562001d965780955062001da9565b6040518060200160405280600081525095505b5090925050505b909203909203601155909890975095505050505050565b62001dd38282620017af565b60025460405163af3dc01160e01b81526000916001600160a01b03169063af3dc0119062001e08908690869060040162002bc4565b602060405180830381600087803b15801562001e2357600080fd5b505af115801562001e38573d6000803e3d6000fd5b505050506040513d601f19601f8201168201806040525081019062001e5e91906200278a565b9050806200134d5762001e7183620018ff565b600260009054906101000a90046001600160a01b03166001600160a01b031663c3fd9b256040518163ffffffff1660e01b8152600401600060405180830381600087803b15801562001ec257600080fd5b505af115801562001ed7573d6000803e3d6000fd5b505050506200134d614e2062001fc8565b6060600183600981111562001ef957fe5b148062001f125750600883600981111562001f1057fe5b145b1562001f2e575060408051602081019091526000815262000f9d565b600483600981111562001f3d57fe5b141562001f7f5760408051602080820183526000808352925162001f68938793909283920162002c89565b604051602081830303815290604052905062000f9d565b60115460105460405162001f9c9286929091869060200162002cc9565b604051602081830303815290604052905092915050565b60005a821062001fc4575a620005d8565b5090565b60115481111562001fdf5762001fdf600362000fa3565b60118054919091039055565b606080825160011480156200201557506080836000815181106200200b57fe5b016020015160f81c105b1562002023575081620005d8565b62000f9a62002035845160806200225a565b84620023b7565b606060008260405160200162002053919062002b83565b604051602081830303815290604052905060005b6020811015620020a2578181815181106200207e57fe5b01602001516001600160f81b031916156200209957620020a2565b60010162002067565b6000816020036001600160401b0381118015620020be57600080fd5b506040519080825280601f01601f191660200182016040528015620020ea576020820181803683370190505b50905060005b8151811015620021445783516001840193859181106200210c57fe5b602001015160f81c60f81b8282815181106200212457fe5b60200101906001600160f81b031916908160001a905350600101620020f0565b50949350505050565b6060815160001415620021705750604080516000815260208101909152620005db565b6000805b8351811015620021a6578381815181106200218b57fe5b60200260200101515182019150808060010191505062002174565b6000826001600160401b0381118015620021bf57600080fd5b506040519080825280601f01601f191660200182016040528015620021eb576020820181803683370190505b50600092509050602081015b8551831015620021445760008684815181106200221057fe5b602002602001015190506000602082019050620022308382845162002547565b8785815181106200223d57fe5b6020026020010151518301925050508280600101935050620021f7565b6060806038841015620022b7576040805160018082528183019092529060208201818036833701905050905082840160f81b816000815181106200229a57fe5b60200101906001600160f81b031916908160001a90535062000f9a565b600060015b808681620022c657fe5b0415620022dd5760019091019061010002620022bc565b816001016001600160401b0381118015620022f757600080fd5b506040519080825280601f01601f19166020018201604052801562002323576020820181803683370190505b50925084820160370160f81b836000815181106200233d57fe5b60200101906001600160f81b031916908160001a905350600190505b818111620023ae576101008183036101000a87816200237457fe5b04816200237d57fe5b0660f81b8382815181106200238e57fe5b60200101906001600160f81b031916908160001a90535060010162002359565b50509392505050565b6060806040519050835180825260208201818101602087015b81831015620023ea578051835260209283019201620023d0565b50855184518101855292509050808201602086015b8183101562002419578051835260209283019201620023ff565b508651929092011591909101601f01601f191660405250905092915050565b805182516001600160a01b0390811691161462002471578051600e80546001600160a01b0319166001600160a01b039092169190911790555b80602001516001600160a01b031682602001516001600160a01b031614620024b8576020810151600f80546001600160a01b0319166001600160a01b039092169190911790555b806040015115158260400151151514620008af5760400151600f8054911515600160a01b0260ff60a01b1990921691909117905550565b600080600060608451600014156200252157505060408051602081019091526000808252600193509150819062002540565b84806020019051810190620025379190620028c7565b93509350935093505b9193509193565b8282825b602081106200256c578151835260209283019290910190601f19016200254b565b905182516020929092036101000a6000190180199091169116179052505050565b6108648062002e3f83390190565b6000620025b2620025ac8462002dd7565b62002db3565b9050828152838383011115620025c757600080fd5b828260208301376000602084830101529392505050565b8035620005db8162002e28565b600082601f830112620025fc578081fd5b62000f9a838335602085016200259b565b803560028110620005db57600080fd5b600060e082840312156200262f578081fd5b6200263b60e062002db3565b9050813581526020820135602082015262002659604083016200260d565b60408201526200266c60608301620025de565b60608201526200267f60808301620025de565b608082015260a082013560a082015260c08201356001600160401b03811115620026a857600080fd5b620026b684828501620025eb565b60c08301525092915050565b600060208284031215620026d4578081fd5b813562000f9a8162002e28565b600060208284031215620026f3578081fd5b815162000f9a8162002e28565b6000806040838503121562002713578081fd5b8235620027208162002e28565b915060208301356001600160401b038111156200273b578182fd5b6200274985828601620025eb565b9150509250929050565b60008060006060848603121562002768578081fd5b8335620027758162002e28565b95602085013595506040909401359392505050565b6000602082840312156200279c578081fd5b8151801515811462000f9a578182fd5b600060208284031215620027be578081fd5b5035919050565b600060208284031215620027d7578081fd5b5051919050565b60008060408385031215620027f1578182fd5b50508035926020909101359150565b6000806000806080858703121562002816578182fd5b84359350602085013560ff811681146200282e578283fd5b93969395505050506040820135916060013590565b60006020828403121562002855578081fd5b81356001600160401b038111156200286b578182fd5b6200287984828501620025eb565b949350505050565b6000806040838503121562002894578182fd5b82356001600160401b03811115620028aa578283fd5b620028b885828601620025eb565b95602094909401359450505050565b60008060008060808587031215620028dd578182fd5b8451600a8110620028ec578283fd5b80945050602085015192506040850151915060608501516001600160401b0381111562002917578182fd5b8501601f8101871362002928578182fd5b805162002939620025ac8262002dd7565b8181528860208385010111156200294e578384fd5b6200296182602083016020860162002df9565b9598949750929550505050565b60006020828403121562002980578081fd5b81356001600160401b0381111562002996578182fd5b8201601f81018413620029a7578182fd5b62002879848235602084016200259b565b60008060408385031215620029cb578182fd5b82356001600160401b03811115620029e1578283fd5b620029ef858286016200261d565b925050602083013562002a028162002e28565b809150509250929050565b60008060006060848603121562002a22578081fd5b83356001600160401b0381111562002a38578182fd5b62002a46868287016200261d565b935050602084013562002a598162002e28565b9150604084013562002a6b8162002e28565b809150509250925092565b60008060006060848603121562002a8b578081fd5b83359250602084013562002a9f8162002e28565b915060408401356001600160401b0381111562002aba578182fd5b62002ac886828701620025eb565b9150509250925092565b6000815180845262002aec81602086016020860162002df9565b601f01601f19169290920160200192915050565b600a811062002b0b57fe5b9052565b60609190911b6bffffffffffffffffffffffff1916815260140190565b6001600160f81b031994909416845260609290921b6bffffffffffffffffffffffff191660018401526015830152603582015260550190565b6000825162002b7981846020870162002df9565b9190910192915050565b90815260200190565b6001600160a01b0391909116815260200190565b6001600160a01b039384168152919092166020820152604081019190915260600190565b6001600160a01b03929092168252602082015260400190565b6001600160a01b039390931683526020830191909152604082015260600190565b6001600160a01b0383168152604060208201819052600090620028799083018462002ad2565b600083151582526040602083015262002879604083018462002ad2565b93845260ff9290921660208401526040830152606082015260800190565b60006020825262000f9a602083018462002ad2565b602081016002831062002c8357fe5b91905290565b600062002c97828762002b00565b60ff8516602083015260ff841660408301526080606083015262002cbf608083018462002ad2565b9695505050505050565b600062002cd7828762002b00565b8460208301528360408301526080606083015262002cbf608083018462002ad2565b60208082526046908201527f4f6e6c792061757468656e746963617465642061646472657373657320696e2060408201527f6f766d53746174654d616e616765722063616e2063616c6c20746869732066756060820152653731ba34b7b760d11b608082015260a00190565b6020808252602e908201527f4f6e6c792062652063616c6c61626c6520617420746865207374617274206f6660408201526d1030903a3930b739b0b1ba34b7b760911b606082015260800190565b6040518181016001600160401b038111828210171562002dcf57fe5b604052919050565b60006001600160401b0382111562002deb57fe5b50601f01601f191660200190565b60005b8381101562002e1657818101518382015260200162002dfc565b83811115620008ac5750506000910152565b6001600160a01b03811681146200049d57600080fdfe608060405234801561001057600080fd5b506040516108643803806108648339818101604052602081101561003357600080fd5b505161003e81610044565b506101c7565b6100877fdeaddeaddeaddeaddeaddeaddeaddeaddeaddeaddeaddeaddeaddeaddeaddead60001b826001600160a01b031660001b61008a60201b6103ba1760201c565b50565b604080516024810184905260448082018490528251808303909101815260649091019091526020810180516001600160e01b03908116628af59360e61b179091526100d691906100db16565b505050565b60606100e75a836100ed565b92915050565b60606000339050600080826001600160a01b031686866040518082805190602001908083835b602083106101325780518252601f199092019160209182019101610113565b6001836020036101000a03801982511681845116808217855250505050505090500191505060006040518083038160008787f1925050503d8060008114610195576040519150601f19603f3d011682016040523d82523d6000602084013e61019a565b606091505b509092509050816101ad57805160208201fd5b8051600114156101bd5760016000f35b92506100e7915050565b61068e806101d66000396000f3fe608060405234801561001057600080fd5b50600436106100365760003560e01c80630900f010146100a1578063aaf10f42146100c9575b6000806100825a6100456100ed565b6000368080601f01602080910402602001604051908101604052809392919081815260200183838082843760009201919091525061011d92505050565b91509150811561009457805160208201f35b61009d816102c0565b5050005b6100c7600480360360208110156100b757600080fd5b50356001600160a01b031661036a565b005b6100d16100ed565b604080516001600160a01b039092168252519081900360200190f35b60006101187fdeaddeaddeaddeaddeaddeaddeaddeaddeaddeaddeaddeaddeaddeaddeaddead610406565b905090565b6000606060006101e586868660405160240180848152602001836001600160a01b0316815260200180602001828103825283818151815260200191508051906020019080838360005b8381101561017e578181015183820152602001610166565b50505050905090810190601f1680156101ab5780820380516001836020036101000a031916815260200191505b5060408051601f198184030181529190526020810180516001600160e01b03166001620631bb60e21b0319179052945061046c9350505050565b90508080602001905160408110156101fc57600080fd5b81516020830180516040519294929383019291908464010000000082111561022357600080fd5b90830190602082018581111561023857600080fd5b825164010000000081118282018810171561025257600080fd5b82525081516020918201929091019080838360005b8381101561027f578181015183820152602001610267565b50505050905090810190601f1680156102ac5780820380516001836020036101000a031916815260200191505b506040525050509250925050935093915050565b610366816040516024018080602001828103825283818151815260200191508051906020019080838360005b838110156103045781810151838201526020016102ec565b50505050905090810190601f1680156103315780820380516001836020036101000a031916815260200191505b5060408051601f198184030181529190526020810180516001600160e01b0316632a2a7adb60e01b179052925061046c915050565b5050565b6103ae61037561047e565b6001600160a01b03166103866104d4565b6001600160a01b0316146040518060600160405280603281526020016106276032913961050b565b6103b781610519565b50565b604080516024810184905260448082018490528251808303909101815260649091019091526020810180516001600160e01b0316628af59360e61b1790526104019061046c565b505050565b6040805160248082018490528251808303909101815260449091019091526020810180516001600160e01b03166303daa95960e01b179052600090819061044c9061046c565b905080806020019051602081101561046357600080fd5b50519392505050565b60606104785a8361054c565b92915050565b6040805160048152602481019091526020810180516001600160e01b0316631cd4241960e21b17905260009081906104b59061046c565b90508080602001905160208110156104cc57600080fd5b505191505090565b6040805160048152602481019091526020810180516001600160e01b031663996d79a560e01b17905260009081906104b59061046c565b8161036657610366816102c0565b6103b77fdeaddeaddeaddeaddeaddeaddeaddeaddeaddeaddeaddeaddeaddeaddeaddead6001600160a01b0383166103ba565b60606000339050600080826001600160a01b031686866040518082805190602001908083835b602083106105915780518252601f199092019160209182019101610572565b6001836020036101000a03801982511681845116808217855250505050505090500191505060006040518083038160008787f1925050503d80600081146105f4576040519150601f19603f3d011682016040523d82523d6000602084013e6105f9565b606091505b5090925090508161060c57805160208201fd5b80516001141561061c5760016000f35b925061047891505056fe454f41732063616e206f6e6c792075706772616465207468656972206f776e20454f4120696d706c656d656e746174696f6ea26469706673582212207f82637ab24ef9653a9774102bad776ee1ee930f0e1d73dfcad1f8fd1b18609a64736f6c634300070600335369676e61747572652070726f766964656420666f7220454f4120636f6e7472616374206372656174696f6e20697320696e76616c69642ea2646970667358221220f054814893c33a58bbcbd4f73988d982d06877b6e63ed1b5a478541f1e64b5b164736f6c63430007060033",
  "devdoc": {
    "details": "The Execution Manager (EM) is the core of our OVM implementation, and provides a sandboxed environment allowing us to execute OVM transactions deterministically on either Layer 1 or Layer 2. The EM's run() function is the first function called during the execution of any transaction on L2. For each context-dependent EVM operation the EM has a function which implements a corresponding OVM operation, which will read state from the State Manager contract. The EM relies on the Safety Checker to verify that code deployed to Layer 2 does not contain any context-dependent operations. Compiler used: solc Runtime target: EVM",
    "kind": "dev",
    "methods": {
      "constructor": {
        "params": {
          "_libAddressManager": "Address of the Address Manager."
        }
      },
      "ovmADDRESS()": {
        "returns": {
          "_ADDRESS": "Active ADDRESS within the current message context."
        }
      },
      "ovmCALL(uint256,address,bytes)": {
        "params": {
          "_address": "Address of the contract to call.",
          "_calldata": "Data to send along with the call.",
          "_gasLimit": "Amount of gas to be passed into this call."
        },
        "returns": {
          "_returndata": "Data returned by the call.",
          "_success": "Whether or not the call returned (rather than reverted)."
        }
      },
      "ovmCALLER()": {
        "returns": {
          "_CALLER": "Address of the CALLER within the current message context."
        }
      },
      "ovmCHAINID()": {
        "returns": {
          "_CHAINID": "Value of the chain's CHAINID within the global context."
        }
      },
      "ovmCREATE(bytes)": {
        "params": {
          "_bytecode": "Code to be used to CREATE a new contract."
        },
        "returns": {
          "_contract": "Address of the created contract."
        }
      },
      "ovmCREATE2(bytes,bytes32)": {
        "params": {
          "_bytecode": "Code to be used to CREATE2 a new contract.",
          "_salt": "Value used to determine the contract's address."
        },
        "returns": {
          "_contract": "Address of the created contract."
        }
      },
      "ovmCREATEEOA(bytes32,uint8,bytes32,bytes32)": {
        "details": "Essentially functions like ovmCREATE or ovmCREATE2, but we can bypass a lot of checks      because the contract we're creating is trusted (no need to do safety checking or to      handle unexpected reverts). Doesn't need to return an address because the address is      assumed to be the user's actual address.",
        "params": {
          "_messageHash": "Hash of a message signed by some user, for verification.",
          "_r": "Signature `r` parameter.",
          "_s": "Signature `s` parameter.",
          "_v": "Signature `v` parameter."
        }
      },
      "ovmDELEGATECALL(uint256,address,bytes)": {
        "params": {
          "_address": "Address of the contract to call.",
          "_calldata": "Data to send along with the call.",
          "_gasLimit": "Amount of gas to be passed into this call."
        },
        "returns": {
          "_returndata": "Data returned by the call.",
          "_success": "Whether or not the call returned (rather than reverted)."
        }
      },
      "ovmEXTCODECOPY(address,uint256,uint256)": {
        "params": {
          "_contract": "Address of the contract to copy code from.",
          "_length": "Total number of bytes to copy from the contract's code.",
          "_offset": "Offset in bytes from the start of contract code to copy beyond."
        },
        "returns": {
          "_code": "Bytes of code copied from the requested contract."
        }
      },
      "ovmEXTCODEHASH(address)": {
        "params": {
          "_contract": "Address of the contract to query the hash of."
        },
        "returns": {
          "_EXTCODEHASH": "Hash of the requested contract."
        }
      },
      "ovmEXTCODESIZE(address)": {
        "params": {
          "_contract": "Address of the contract to query the size of."
        },
        "returns": {
          "_EXTCODESIZE": "Size of the requested contract in bytes."
        }
      },
      "ovmGASLIMIT()": {
        "returns": {
          "_GASLIMIT": "Value of the block's GASLIMIT within the transaction context."
        }
      },
      "ovmGETNONCE()": {
        "returns": {
          "_nonce": "Nonce of the current contract."
        }
      },
      "ovmL1QUEUEORIGIN()": {
        "returns": {
          "_queueOrigin": "Address of the ovmL1QUEUEORIGIN within the current message context."
        }
      },
      "ovmL1TXORIGIN()": {
        "returns": {
          "_l1TxOrigin": "Address of the account which sent the tx into L2 from L1."
        }
      },
      "ovmNUMBER()": {
        "returns": {
          "_NUMBER": "Value of the NUMBER within the transaction context."
        }
      },
      "ovmREVERT(bytes)": {
        "params": {
          "_data": "Bytes data to pass along with the REVERT."
        }
      },
      "ovmSETNONCE(uint256)": {
        "params": {
          "_nonce": "New nonce for the current contract."
        }
      },
      "ovmSLOAD(bytes32)": {
        "params": {
          "_key": "32 byte key of the storage slot to load."
        },
        "returns": {
          "_value": "32 byte value of the requested storage slot."
        }
      },
      "ovmSSTORE(bytes32,bytes32)": {
        "params": {
          "_key": "32 byte key of the storage slot to set.",
          "_value": "32 byte value for the storage slot."
        }
      },
      "ovmSTATICCALL(uint256,address,bytes)": {
        "params": {
          "_address": "Address of the contract to call.",
          "_calldata": "Data to send along with the call.",
          "_gasLimit": "Amount of gas to be passed into this call."
        },
        "returns": {
          "_returndata": "Data returned by the call.",
          "_success": "Whether or not the call returned (rather than reverted)."
        }
      },
      "ovmTIMESTAMP()": {
        "returns": {
          "_TIMESTAMP": "Value of the TIMESTAMP within the transaction context."
        }
      },
      "run((uint256,uint256,uint8,address,address,uint256,bytes),address)": {
        "params": {
          "_ovmStateManager": "iOVM_StateManager implementation providing account state.",
          "_transaction": "Transaction data to be executed."
        }
      },
      "safeCREATE(address,bytes)": {
        "details": "This function is implemented as `public` because we need to be able to revert a      contract creation without losing information about exactly *why* the contract reverted.      In particular, we want to be sure that contracts cannot trigger an INVALID_STATE_ACCESS      flag and then revert to reset the flag. We're able to do this by making an external      call from `ovmCREATE` and `ovmCREATE2` to `safeCREATE`, which can capture and relay      information before reverting.",
        "params": {
          "_address": "Address of the contract to associate with the one being created.",
          "_bytecode": "Code to be used to create the new contract."
        }
      },
      "simulateMessage((uint256,uint256,uint8,address,address,uint256,bytes),address,address)": {
        "params": {
          "_from": "the OVM account the simulated call should be from.",
          "_transaction": "the message transaction to simulate."
        }
      }
    },
    "title": "OVM_ExecutionManager",
    "version": 1
  },
  "userdoc": {
    "kind": "user",
    "methods": {
      "ovmADDRESS()": {
        "notice": "Overrides ADDRESS."
      },
      "ovmCALL(uint256,address,bytes)": {
        "notice": "Overrides CALL."
      },
      "ovmCALLER()": {
        "notice": "Overrides CALLER."
      },
      "ovmCHAINID()": {
        "notice": "Overrides CHAINID."
      },
      "ovmCREATE(bytes)": {
        "notice": "Overrides CREATE."
      },
      "ovmCREATE2(bytes,bytes32)": {
        "notice": "Overrides CREATE2."
      },
      "ovmCREATEEOA(bytes32,uint8,bytes32,bytes32)": {
        "notice": "Creates a new EOA contract account, for account abstraction."
      },
      "ovmDELEGATECALL(uint256,address,bytes)": {
        "notice": "Overrides DELEGATECALL."
      },
      "ovmEXTCODECOPY(address,uint256,uint256)": {
        "notice": "Overrides EXTCODECOPY."
      },
      "ovmEXTCODEHASH(address)": {
        "notice": "Overrides EXTCODEHASH."
      },
      "ovmEXTCODESIZE(address)": {
        "notice": "Overrides EXTCODESIZE."
      },
      "ovmGASLIMIT()": {
        "notice": "Overrides GASLIMIT."
      },
      "ovmGETNONCE()": {
        "notice": "Retrieves the nonce of the current ovmADDRESS."
      },
      "ovmL1QUEUEORIGIN()": {
        "notice": "Specifies from which L1 rollup queue this transaction originated from."
      },
      "ovmL1TXORIGIN()": {
        "notice": "Specifies which L1 account, if any, sent this transaction by calling enqueue()."
      },
      "ovmNUMBER()": {
        "notice": "Overrides NUMBER."
      },
      "ovmREVERT(bytes)": {
        "notice": "Overrides REVERT."
      },
      "ovmSETNONCE(uint256)": {
        "notice": "Sets the nonce of the current ovmADDRESS."
      },
      "ovmSLOAD(bytes32)": {
        "notice": "Overrides SLOAD."
      },
      "ovmSSTORE(bytes32,bytes32)": {
        "notice": "Overrides SSTORE."
      },
      "ovmSTATICCALL(uint256,address,bytes)": {
        "notice": "Overrides STATICCALL."
      },
      "ovmTIMESTAMP()": {
        "notice": "Overrides TIMESTAMP."
      },
      "run((uint256,uint256,uint8,address,address,uint256,bytes),address)": {
        "notice": "Starts the execution of a transaction via the OVM_ExecutionManager."
      },
      "safeCREATE(address,bytes)": {
        "notice": "Performs the logic to create a contract and revert under various potential conditions."
      },
      "simulateMessage((uint256,uint256,uint8,address,address,uint256,bytes),address,address)": {
        "notice": "Unreachable helper function for simulating eth_calls with an OVM message context. This function will throw an exception in all cases other than when used as a custom entrypoint in L2 Geth to simulate eth_call."
      }
    },
    "version": 1
  },
  "storageLayout": {
    "storage": [
      {
        "astId": 12337,
        "contract": "contracts/optimistic-ethereum/OVM/execution/OVM_ExecutionManager.sol:OVM_ExecutionManager",
        "label": "libAddressManager",
        "offset": 0,
        "slot": "0",
        "type": "t_contract(Lib_AddressManager)12330"
      },
      {
        "astId": 4291,
        "contract": "contracts/optimistic-ethereum/OVM/execution/OVM_ExecutionManager.sol:OVM_ExecutionManager",
        "label": "ovmSafetyChecker",
        "offset": 0,
        "slot": "1",
        "type": "t_contract(iOVM_SafetyChecker)10816"
      },
      {
        "astId": 4293,
        "contract": "contracts/optimistic-ethereum/OVM/execution/OVM_ExecutionManager.sol:OVM_ExecutionManager",
        "label": "ovmStateManager",
        "offset": 0,
        "slot": "2",
        "type": "t_contract(iOVM_StateManager)11048"
      },
      {
        "astId": 4295,
        "contract": "contracts/optimistic-ethereum/OVM/execution/OVM_ExecutionManager.sol:OVM_ExecutionManager",
        "label": "gasMeterConfig",
        "offset": 0,
        "slot": "3",
        "type": "t_struct(GasMeterConfig)10594_storage"
      },
      {
        "astId": 4297,
        "contract": "contracts/optimistic-ethereum/OVM/execution/OVM_ExecutionManager.sol:OVM_ExecutionManager",
        "label": "globalContext",
        "offset": 0,
        "slot": "7",
        "type": "t_struct(GlobalContext)10597_storage"
      },
      {
        "astId": 4299,
        "contract": "contracts/optimistic-ethereum/OVM/execution/OVM_ExecutionManager.sol:OVM_ExecutionManager",
        "label": "transactionContext",
        "offset": 0,
        "slot": "8",
        "type": "t_struct(TransactionContext)10610_storage"
      },
      {
        "astId": 4301,
        "contract": "contracts/optimistic-ethereum/OVM/execution/OVM_ExecutionManager.sol:OVM_ExecutionManager",
        "label": "messageContext",
        "offset": 0,
        "slot": "14",
        "type": "t_struct(MessageContext)10620_storage"
      },
      {
        "astId": 4303,
        "contract": "contracts/optimistic-ethereum/OVM/execution/OVM_ExecutionManager.sol:OVM_ExecutionManager",
        "label": "transactionRecord",
        "offset": 0,
        "slot": "16",
        "type": "t_struct(TransactionRecord)10613_storage"
      },
      {
        "astId": 4305,
        "contract": "contracts/optimistic-ethereum/OVM/execution/OVM_ExecutionManager.sol:OVM_ExecutionManager",
        "label": "messageRecord",
        "offset": 0,
        "slot": "17",
        "type": "t_struct(MessageRecord)10625_storage"
      }
    ],
    "types": {
      "t_address": {
        "encoding": "inplace",
        "label": "address",
        "numberOfBytes": "20"
      },
      "t_bool": {
        "encoding": "inplace",
        "label": "bool",
        "numberOfBytes": "1"
      },
      "t_contract(Lib_AddressManager)12330": {
        "encoding": "inplace",
        "label": "contract Lib_AddressManager",
        "numberOfBytes": "20"
      },
      "t_contract(iOVM_SafetyChecker)10816": {
        "encoding": "inplace",
        "label": "contract iOVM_SafetyChecker",
        "numberOfBytes": "20"
      },
      "t_contract(iOVM_StateManager)11048": {
        "encoding": "inplace",
        "label": "contract iOVM_StateManager",
        "numberOfBytes": "20"
      },
      "t_enum(QueueOrigin)11644": {
        "encoding": "inplace",
        "label": "enum Lib_OVMCodec.QueueOrigin",
        "numberOfBytes": "1"
      },
      "t_enum(RevertFlag)10579": {
        "encoding": "inplace",
        "label": "enum iOVM_ExecutionManager.RevertFlag",
        "numberOfBytes": "1"
      },
      "t_struct(GasMeterConfig)10594_storage": {
        "encoding": "inplace",
        "label": "struct iOVM_ExecutionManager.GasMeterConfig",
        "members": [
          {
            "astId": 10587,
            "contract": "contracts/optimistic-ethereum/OVM/execution/OVM_ExecutionManager.sol:OVM_ExecutionManager",
            "label": "minTransactionGasLimit",
            "offset": 0,
            "slot": "0",
            "type": "t_uint256"
          },
          {
            "astId": 10589,
            "contract": "contracts/optimistic-ethereum/OVM/execution/OVM_ExecutionManager.sol:OVM_ExecutionManager",
            "label": "maxTransactionGasLimit",
            "offset": 0,
            "slot": "1",
            "type": "t_uint256"
          },
          {
            "astId": 10591,
            "contract": "contracts/optimistic-ethereum/OVM/execution/OVM_ExecutionManager.sol:OVM_ExecutionManager",
            "label": "maxGasPerQueuePerEpoch",
            "offset": 0,
            "slot": "2",
            "type": "t_uint256"
          },
          {
            "astId": 10593,
            "contract": "contracts/optimistic-ethereum/OVM/execution/OVM_ExecutionManager.sol:OVM_ExecutionManager",
            "label": "secondsPerEpoch",
            "offset": 0,
            "slot": "3",
            "type": "t_uint256"
          }
        ],
        "numberOfBytes": "128"
      },
      "t_struct(GlobalContext)10597_storage": {
        "encoding": "inplace",
        "label": "struct iOVM_ExecutionManager.GlobalContext",
        "members": [
          {
            "astId": 10596,
            "contract": "contracts/optimistic-ethereum/OVM/execution/OVM_ExecutionManager.sol:OVM_ExecutionManager",
            "label": "ovmCHAINID",
            "offset": 0,
            "slot": "0",
            "type": "t_uint256"
          }
        ],
        "numberOfBytes": "32"
      },
      "t_struct(MessageContext)10620_storage": {
        "encoding": "inplace",
        "label": "struct iOVM_ExecutionManager.MessageContext",
        "members": [
          {
            "astId": 10615,
            "contract": "contracts/optimistic-ethereum/OVM/execution/OVM_ExecutionManager.sol:OVM_ExecutionManager",
            "label": "ovmCALLER",
            "offset": 0,
            "slot": "0",
            "type": "t_address"
          },
          {
            "astId": 10617,
            "contract": "contracts/optimistic-ethereum/OVM/execution/OVM_ExecutionManager.sol:OVM_ExecutionManager",
            "label": "ovmADDRESS",
            "offset": 0,
            "slot": "1",
            "type": "t_address"
          },
          {
            "astId": 10619,
            "contract": "contracts/optimistic-ethereum/OVM/execution/OVM_ExecutionManager.sol:OVM_ExecutionManager",
            "label": "isStatic",
            "offset": 20,
            "slot": "1",
            "type": "t_bool"
          }
        ],
        "numberOfBytes": "64"
      },
      "t_struct(MessageRecord)10625_storage": {
        "encoding": "inplace",
        "label": "struct iOVM_ExecutionManager.MessageRecord",
        "members": [
          {
            "astId": 10622,
            "contract": "contracts/optimistic-ethereum/OVM/execution/OVM_ExecutionManager.sol:OVM_ExecutionManager",
            "label": "nuisanceGasLeft",
            "offset": 0,
            "slot": "0",
            "type": "t_uint256"
          },
          {
            "astId": 10624,
            "contract": "contracts/optimistic-ethereum/OVM/execution/OVM_ExecutionManager.sol:OVM_ExecutionManager",
            "label": "revertFlag",
            "offset": 0,
            "slot": "1",
            "type": "t_enum(RevertFlag)10579"
          }
        ],
        "numberOfBytes": "64"
      },
      "t_struct(TransactionContext)10610_storage": {
        "encoding": "inplace",
        "label": "struct iOVM_ExecutionManager.TransactionContext",
        "members": [
          {
            "astId": 10599,
            "contract": "contracts/optimistic-ethereum/OVM/execution/OVM_ExecutionManager.sol:OVM_ExecutionManager",
            "label": "ovmL1QUEUEORIGIN",
            "offset": 0,
            "slot": "0",
            "type": "t_enum(QueueOrigin)11644"
          },
          {
            "astId": 10601,
            "contract": "contracts/optimistic-ethereum/OVM/execution/OVM_ExecutionManager.sol:OVM_ExecutionManager",
            "label": "ovmTIMESTAMP",
            "offset": 0,
            "slot": "1",
            "type": "t_uint256"
          },
          {
            "astId": 10603,
            "contract": "contracts/optimistic-ethereum/OVM/execution/OVM_ExecutionManager.sol:OVM_ExecutionManager",
            "label": "ovmNUMBER",
            "offset": 0,
            "slot": "2",
            "type": "t_uint256"
          },
          {
            "astId": 10605,
            "contract": "contracts/optimistic-ethereum/OVM/execution/OVM_ExecutionManager.sol:OVM_ExecutionManager",
            "label": "ovmGASLIMIT",
            "offset": 0,
            "slot": "3",
            "type": "t_uint256"
          },
          {
            "astId": 10607,
            "contract": "contracts/optimistic-ethereum/OVM/execution/OVM_ExecutionManager.sol:OVM_ExecutionManager",
            "label": "ovmTXGASLIMIT",
            "offset": 0,
            "slot": "4",
            "type": "t_uint256"
          },
          {
            "astId": 10609,
            "contract": "contracts/optimistic-ethereum/OVM/execution/OVM_ExecutionManager.sol:OVM_ExecutionManager",
            "label": "ovmL1TXORIGIN",
            "offset": 0,
            "slot": "5",
            "type": "t_address"
          }
        ],
        "numberOfBytes": "192"
      },
      "t_struct(TransactionRecord)10613_storage": {
        "encoding": "inplace",
        "label": "struct iOVM_ExecutionManager.TransactionRecord",
        "members": [
          {
            "astId": 10612,
            "contract": "contracts/optimistic-ethereum/OVM/execution/OVM_ExecutionManager.sol:OVM_ExecutionManager",
            "label": "ovmGasRefund",
            "offset": 0,
            "slot": "0",
            "type": "t_uint256"
          }
        ],
        "numberOfBytes": "32"
      },
      "t_uint256": {
        "encoding": "inplace",
        "label": "uint256",
        "numberOfBytes": "32"
      }
    }
  }
}