{
  "address": "0x22d5693F575d3DeDA9cb4A23ADff6a7A65C290af",
  "abi": [
    {
      "inputs": [
        {
          "internalType": "address",
          "name": "_libAddressManager",
          "type": "address"
        }
      ],
      "stateMutability": "nonpayable",
      "type": "constructor"
    },
    {
      "anonymous": false,
      "inputs": [
        {
          "indexed": false,
          "internalType": "bytes32",
          "name": "_preStateRoot",
          "type": "bytes32"
        },
        {
          "indexed": false,
          "internalType": "uint256",
          "name": "_preStateRootIndex",
          "type": "uint256"
        },
        {
          "indexed": false,
          "internalType": "bytes32",
          "name": "_transactionHash",
          "type": "bytes32"
        },
        {
          "indexed": false,
          "internalType": "address",
          "name": "_who",
          "type": "address"
        }
      ],
      "name": "FraudProofFinalized",
      "type": "event"
    },
    {
      "anonymous": false,
      "inputs": [
        {
          "indexed": false,
          "internalType": "bytes32",
          "name": "_preStateRoot",
          "type": "bytes32"
        },
        {
          "indexed": false,
          "internalType": "uint256",
          "name": "_preStateRootIndex",
          "type": "uint256"
        },
        {
          "indexed": false,
          "internalType": "bytes32",
          "name": "_transactionHash",
          "type": "bytes32"
        },
        {
          "indexed": false,
          "internalType": "address",
          "name": "_who",
          "type": "address"
        }
      ],
      "name": "FraudProofInitialized",
      "type": "event"
    },
    {
      "inputs": [
        {
          "internalType": "bytes32",
          "name": "_preStateRoot",
          "type": "bytes32"
        },
        {
          "components": [
            {
              "internalType": "uint256",
              "name": "batchIndex",
              "type": "uint256"
            },
            {
              "internalType": "bytes32",
              "name": "batchRoot",
              "type": "bytes32"
            },
            {
              "internalType": "uint256",
              "name": "batchSize",
              "type": "uint256"
            },
            {
              "internalType": "uint256",
              "name": "prevTotalElements",
              "type": "uint256"
            },
            {
              "internalType": "bytes",
              "name": "extraData",
              "type": "bytes"
            }
          ],
          "internalType": "struct Lib_OVMCodec.ChainBatchHeader",
          "name": "_preStateRootBatchHeader",
          "type": "tuple"
        },
        {
          "components": [
            {
              "internalType": "uint256",
              "name": "index",
              "type": "uint256"
            },
            {
              "internalType": "bytes32[]",
              "name": "siblings",
              "type": "bytes32[]"
            }
          ],
          "internalType": "struct Lib_OVMCodec.ChainInclusionProof",
          "name": "_preStateRootProof",
          "type": "tuple"
        },
        {
          "internalType": "bytes32",
          "name": "_txHash",
          "type": "bytes32"
        },
        {
          "internalType": "bytes32",
          "name": "_postStateRoot",
          "type": "bytes32"
        },
        {
          "components": [
            {
              "internalType": "uint256",
              "name": "batchIndex",
              "type": "uint256"
            },
            {
              "internalType": "bytes32",
              "name": "batchRoot",
              "type": "bytes32"
            },
            {
              "internalType": "uint256",
              "name": "batchSize",
              "type": "uint256"
            },
            {
              "internalType": "uint256",
              "name": "prevTotalElements",
              "type": "uint256"
            },
            {
              "internalType": "bytes",
              "name": "extraData",
              "type": "bytes"
            }
          ],
          "internalType": "struct Lib_OVMCodec.ChainBatchHeader",
          "name": "_postStateRootBatchHeader",
          "type": "tuple"
        },
        {
          "components": [
            {
              "internalType": "uint256",
              "name": "index",
              "type": "uint256"
            },
            {
              "internalType": "bytes32[]",
              "name": "siblings",
              "type": "bytes32[]"
            }
          ],
          "internalType": "struct Lib_OVMCodec.ChainInclusionProof",
          "name": "_postStateRootProof",
          "type": "tuple"
        }
      ],
      "name": "finalizeFraudVerification",
      "outputs": [],
      "stateMutability": "nonpayable",
      "type": "function"
    },
    {
      "inputs": [
        {
          "internalType": "bytes32",
          "name": "_preStateRoot",
          "type": "bytes32"
        },
        {
          "internalType": "bytes32",
          "name": "_txHash",
          "type": "bytes32"
        }
      ],
      "name": "getStateTransitioner",
      "outputs": [
        {
          "internalType": "contract iOVM_StateTransitioner",
          "name": "_transitioner",
          "type": "address"
        }
      ],
      "stateMutability": "view",
      "type": "function"
    },
    {
      "inputs": [
        {
          "internalType": "bytes32",
          "name": "_preStateRoot",
          "type": "bytes32"
        },
        {
          "components": [
            {
              "internalType": "uint256",
              "name": "batchIndex",
              "type": "uint256"
            },
            {
              "internalType": "bytes32",
              "name": "batchRoot",
              "type": "bytes32"
            },
            {
              "internalType": "uint256",
              "name": "batchSize",
              "type": "uint256"
            },
            {
              "internalType": "uint256",
              "name": "prevTotalElements",
              "type": "uint256"
            },
            {
              "internalType": "bytes",
              "name": "extraData",
              "type": "bytes"
            }
          ],
          "internalType": "struct Lib_OVMCodec.ChainBatchHeader",
          "name": "_preStateRootBatchHeader",
          "type": "tuple"
        },
        {
          "components": [
            {
              "internalType": "uint256",
              "name": "index",
              "type": "uint256"
            },
            {
              "internalType": "bytes32[]",
              "name": "siblings",
              "type": "bytes32[]"
            }
          ],
          "internalType": "struct Lib_OVMCodec.ChainInclusionProof",
          "name": "_preStateRootProof",
          "type": "tuple"
        },
        {
          "components": [
            {
              "internalType": "uint256",
              "name": "timestamp",
              "type": "uint256"
            },
            {
              "internalType": "uint256",
              "name": "blockNumber",
              "type": "uint256"
            },
            {
              "internalType": "enum Lib_OVMCodec.QueueOrigin",
              "name": "l1QueueOrigin",
              "type": "uint8"
            },
            {
              "internalType": "address",
              "name": "l1TxOrigin",
              "type": "address"
            },
            {
              "internalType": "address",
              "name": "entrypoint",
              "type": "address"
            },
            {
              "internalType": "uint256",
              "name": "gasLimit",
              "type": "uint256"
            },
            {
              "internalType": "bytes",
              "name": "data",
              "type": "bytes"
            }
          ],
          "internalType": "struct Lib_OVMCodec.Transaction",
          "name": "_transaction",
          "type": "tuple"
        },
        {
          "components": [
            {
              "internalType": "bool",
              "name": "isSequenced",
              "type": "bool"
            },
            {
              "internalType": "uint256",
              "name": "queueIndex",
              "type": "uint256"
            },
            {
              "internalType": "uint256",
              "name": "timestamp",
              "type": "uint256"
            },
            {
              "internalType": "uint256",
              "name": "blockNumber",
              "type": "uint256"
            },
            {
              "internalType": "bytes",
              "name": "txData",
              "type": "bytes"
            }
          ],
          "internalType": "struct Lib_OVMCodec.TransactionChainElement",
          "name": "_txChainElement",
          "type": "tuple"
        },
        {
          "components": [
            {
              "internalType": "uint256",
              "name": "batchIndex",
              "type": "uint256"
            },
            {
              "internalType": "bytes32",
              "name": "batchRoot",
              "type": "bytes32"
            },
            {
              "internalType": "uint256",
              "name": "batchSize",
              "type": "uint256"
            },
            {
              "internalType": "uint256",
              "name": "prevTotalElements",
              "type": "uint256"
            },
            {
              "internalType": "bytes",
              "name": "extraData",
              "type": "bytes"
            }
          ],
          "internalType": "struct Lib_OVMCodec.ChainBatchHeader",
          "name": "_transactionBatchHeader",
          "type": "tuple"
        },
        {
          "components": [
            {
              "internalType": "uint256",
              "name": "index",
              "type": "uint256"
            },
            {
              "internalType": "bytes32[]",
              "name": "siblings",
              "type": "bytes32[]"
            }
          ],
          "internalType": "struct Lib_OVMCodec.ChainInclusionProof",
          "name": "_transactionProof",
          "type": "tuple"
        }
      ],
      "name": "initializeFraudVerification",
      "outputs": [],
      "stateMutability": "nonpayable",
      "type": "function"
    },
    {
      "inputs": [
        {
          "internalType": "string",
          "name": "_name",
          "type": "string"
        }
      ],
      "name": "resolve",
      "outputs": [
        {
          "internalType": "address",
          "name": "_contract",
          "type": "address"
        }
      ],
      "stateMutability": "view",
      "type": "function"
    }
  ],
  "transactionHash": "0x4b58fe171fdc1dde44839a5e76f05e33c5e1a3323cce6e937df497e0cd573495",
  "args": [
    "0xe32CEbDb70aC8572Ebee537507784089Fb96a8Ad"
  ],
  "solcInputHash": "167e1592944606d9f946a16ee2ddffd3",
  "bytecode": "0x608060405234801561001057600080fd5b5060405161181238038061181283398101604081905261002f91610054565b600080546001600160a01b0319166001600160a01b0392909216919091179055610082565b600060208284031215610065578081fd5b81516001600160a01b038116811461007b578182fd5b9392505050565b611781806100916000396000f3fe608060405234801561001057600080fd5b506004361061004c5760003560e01c8063461a44781461005157806398d8867d1461007a578063a286ba1c1461008f578063b48ec820146100a2575b600080fd5b61006461005f3660046110d2565b6100b5565b60405161007191906112d7565b60405180910390f35b61008d610088366004610ffa565b610193565b005b61008d61009d366004610f35565b6104d2565b6100646100b0366004610f14565b61088c565b6000805460405163bf40fac160e01b81526020600482018181528551602484015285516001600160a01b039094169363bf40fac19387938392604490920191908501908083838b5b838110156101155781810151838201526020016100fd565b50505050905090810190601f1680156101425780820380516001836020036101000a031916815260200191505b509250505060206040518083038186803b15801561015f57600080fd5b505afa158015610173573d6000803e3d6000fd5b505050506040513d602081101561018957600080fd5b505190505b919050565b8661019d856108db565b60005a905060006101ad886108db565b90506101b98b826108f4565b156101c45750610410565b60006101ff6040518060400160405280601881526020017727ab26afa9ba30ba32a1b7b6b6b4ba36b2b73a21b430b4b760411b8152506100b5565b905060006102416040518060400160405280601d81526020017f4f564d5f43616e6f6e6963616c5472616e73616374696f6e436861696e0000008152506100b5565b9050816001600160a01b0316634d69ee578e8e8e6040518463ffffffff1660e01b815260040161027393929190611330565b60206040518083038186803b15801561028b57600080fd5b505afa15801561029f573d6000803e3d6000fd5b505050506040513d601f19601f820116820180604052508101906102c39190610ee0565b6102e85760405162461bcd60e51b81526004016102df906115b8565b60405180910390fd5b6040516326f2b4e760e11b81526001600160a01b03821690634de569ce9061031a908d908d908d908d90600401611612565b60206040518083038186803b15801561033257600080fd5b505afa158015610346573d6000803e3d6000fd5b505050506040513d601f19601f8201168201806040525081019061036a9190610ee0565b6103865760405162461bcd60e51b81526004016102df9061146a565b86600001518860600151018b600001518d6060015101600101146103bc5760405162461bcd60e51b81526004016102df906114f6565b6103cb8d848d60000151610913565b7f41a48bde2468fac6f670f39b66d7b91f311053e1f28eab9d75056546e6eaac958d8c6000015185336040516104049493929190611365565b60405180910390a15050505b60005a820390506104476040518060400160405280600f81526020016e27ab26afa137b73226b0b730b3b2b960891b8152506100b5565b6001600160a01b0316631e16e92f858533856040518563ffffffff1660e01b815260040180858152602001848152602001836001600160a01b03168152602001828152602001945050505050600060405180830381600087803b1580156104ad57600080fd5b505af11580156104c1573d6000803e3d6000fd5b505050505050505050505050505050565b868460005a905060006104e58b8961088c565b905060006105226040518060400160405280601881526020017727ab26afa9ba30ba32a1b7b6b6b4ba36b2b73a21b430b4b760411b8152506100b5565b905060006105566040518060400160405280600f81526020016e27ab26afa137b73226b0b730b3b2b960891b8152506100b5565b9050826001600160a01b031663b2fa1c9e6040518163ffffffff1660e01b815260040160206040518083038186803b15801561059157600080fd5b505afa1580156105a5573d6000803e3d6000fd5b505050506040513d601f19601f820116820180604052508101906105c99190610ee0565b15156001146105ea5760405162461bcd60e51b81526004016102df90611389565b8a600001518c60600151016001018760000151896060015101146106205760405162461bcd60e51b81526004016102df906113f0565b816001600160a01b0316634d69ee578e8e8e6040518463ffffffff1660e01b815260040161065093929190611330565b60206040518083038186803b15801561066857600080fd5b505afa15801561067c573d6000803e3d6000fd5b505050506040513d601f19601f820116820180604052508101906106a09190610ee0565b6106bc5760405162461bcd60e51b81526004016102df906115b8565b604051634d69ee5760e01b81526001600160a01b03831690634d69ee57906106ec908c908c908c90600401611330565b60206040518083038186803b15801561070457600080fd5b505afa158015610718573d6000803e3d6000fd5b505050506040513d601f19601f8201168201806040525081019061073c9190610ee0565b6107585760405162461bcd60e51b81526004016102df906114ae565b826001600160a01b031663c1c618b86040518163ffffffff1660e01b815260040160206040518083038186803b15801561079157600080fd5b505afa1580156107a5573d6000803e3d6000fd5b505050506040513d601f19601f820116820180604052508101906107c99190610efc565b8914156107e85760405162461bcd60e51b81526004016102df90611568565b6107f2888e610a3e565b6000600160008f8d60405160200161080b92919061125a565b60405160208183030381529060405280519060200120815260200190815260200160002060006101000a8154816001600160a01b0302191690836001600160a01b031602179055507f1e5fff3c23daf51ea67aaa3bbc738bcedaa98be5a5503f0e63a336a004b075b18d8c600001518c336040516104049493929190611365565b60006001600084846040516020016108a592919061125a565b60408051808303601f19018152918152815160209283012083529082019290925201600020546001600160a01b03169392505050565b60006108e682610b98565b805190602001209050919050565b600080610901848461088c565b6001600160a01b031614159392505050565b6109516040518060400160405280601c81526020017f4f564d5f53746174655472616e736974696f6e6572466163746f7279000000008152506100b5565b600054604051631168a38160e11b81526001600160a01b03928316926322d1470292610988929116908590889088906004016112eb565b602060405180830381600087803b1580156109a257600080fd5b505af11580156109b6573d6000803e3d6000fd5b505050506040513d601f19601f820116820180604052508101906109da91906110b6565b6001600085856040516020016109f192919061125a565b60405160208183030381529060405280519060200120815260200190815260200160002060006101000a8154816001600160a01b0302191690836001600160a01b03160217905550505050565b6000610a796040518060400160405280601881526020017727ab26afa9ba30ba32a1b7b6b6b4ba36b2b73a21b430b4b760411b8152506100b5565b90506000610aad6040518060400160405280600f81526020016e27ab26afa137b73226b0b730b3b2b960891b8152506100b5565b604051632e38626b60e21b81529091506001600160a01b0383169063b8e189ac90610adc9087906004016115ff565b600060405180830381600087803b158015610af657600080fd5b505af1158015610b0a573d6000803e3d6000fd5b505050506000808560800151806020019051810190610b299190611120565b60405163abfbbe1360e01b815291935091506001600160a01b0384169063abfbbe1390610b5e90889085908790600401611311565b600060405180830381600087803b158015610b7857600080fd5b505af1158015610b8c573d6000803e3d6000fd5b50505050505050505050565b6060816000015182602001518360400151846060015185608001518660a001518760c00151604051602001610bd39796959493929190611268565b6040516020818303038152906040529050919050565b600067ffffffffffffffff831115610bfd57fe5b610c10601f8401601f19166020016116d1565b9050828152838383011115610c2457600080fd5b828260208301376000602084830101529392505050565b803561018e81611725565b600082601f830112610c56578081fd5b610c6583833560208501610be9565b9392505050565b80356002811061018e57600080fd5b600060a08284031215610c8c578081fd5b60405160a0810167ffffffffffffffff8282108183111715610caa57fe5b81604052829350843583526020850135602084015260408501356040840152606085013560608401526080850135915080821115610ce757600080fd5b50610cf485828601610c46565b6080830152505092915050565b600060408284031215610d12578081fd5b6040516040810167ffffffffffffffff8282108183111715610d3057fe5b8160405282935084358352602091508185013581811115610d5057600080fd5b8501601f81018713610d6157600080fd5b803582811115610d6d57fe5b8381029250610d7d8484016116d1565b8181528481019083860185850187018b1015610d9857600080fd5b600095505b83861015610dbb578035835260019590950194918601918601610d9d565b5080868801525050505050505092915050565b600060a08284031215610ddf578081fd5b60405160a0810167ffffffffffffffff8282108183111715610dfd57fe5b8160405282935084359150610e118261173d565b8183526020850135602084015260408501356040840152606085013560608401526080850135915080821115610ce757600080fd5b600060e08284031215610e57578081fd5b610e6160e06116d1565b90508135815260208201356020820152610e7d60408301610c6c565b6040820152610e8e60608301610c3b565b6060820152610e9f60808301610c3b565b608082015260a082013560a082015260c082013567ffffffffffffffff811115610ec857600080fd5b610ed484828501610c46565b60c08301525092915050565b600060208284031215610ef1578081fd5b8151610c658161173d565b600060208284031215610f0d578081fd5b5051919050565b60008060408385031215610f26578081fd5b50508035926020909101359150565b600080600080600080600060e0888a031215610f4f578283fd5b87359650602088013567ffffffffffffffff80821115610f6d578485fd5b610f798b838c01610c7b565b975060408a0135915080821115610f8e578485fd5b610f9a8b838c01610d01565b965060608a0135955060808a0135945060a08a0135915080821115610fbd578384fd5b610fc98b838c01610c7b565b935060c08a0135915080821115610fde578283fd5b50610feb8a828b01610d01565b91505092959891949750929550565b600080600080600080600060e0888a031215611014578081fd5b87359650602088013567ffffffffffffffff80821115611032578283fd5b61103e8b838c01610c7b565b975060408a0135915080821115611053578283fd5b61105f8b838c01610d01565b965060608a0135915080821115611074578283fd5b6110808b838c01610e46565b955060808a0135915080821115611095578283fd5b6110a18b838c01610dce565b945060a08a0135915080821115610fbd578283fd5b6000602082840312156110c7578081fd5b8151610c6581611725565b6000602082840312156110e3578081fd5b813567ffffffffffffffff8111156110f9578182fd5b8201601f81018413611109578182fd5b61111884823560208401610be9565b949350505050565b60008060408385031215611132578182fd5b82519150602083015161114481611725565b809150509250929050565b6001600160a01b03169052565b600081518084526111748160208601602086016116f5565b601f01601f19169290920160200192915050565b600081518352602082015160208401526040820151604084015260608201516060840152608082015160a0608085015261111860a085018261115c565b6000604083018251845260208084015160408287015282815180855260608801915083830194508592505b8083101561121057845182529383019360019290920191908301906111f0565b509695505050505050565b6000815115158352602082015160208401526040820151604084015260608201516060840152608082015160a0608085015261111860a085018261115c565b918252602082015260400190565b60008882528760208301526002871061127d57fe5b8660f81b60408301526bffffffffffffffffffffffff19808760601b166041840152808660601b1660558401525083606983015282516112c48160898501602087016116f5565b9190910160890198975050505050505050565b6001600160a01b0391909116815260200190565b6001600160a01b0394909416845260208401929092526040830152606082015260800190565b9283526001600160a01b03919091166020830152604082015260600190565b6000848252606060208301526113496060830185611188565b828103604084015261135b81856111c5565b9695505050505050565b938452602084019290925260408301526001600160a01b0316606082015260800190565b60208082526041908201527f5374617465207472616e736974696f6e2070726f63657373206d75737420626560408201527f20636f6d706c65746564207072696f7220746f2066696e616c697a6174696f6e6060820152601760f91b608082015260a00190565b60208082526054908201527f506f73742d737461746520726f6f7420676c6f62616c20696e646578206d757360408201527f7420657175616c20746f207468652070726520737461746520726f6f7420676c60608201527337b130b61034b73232bc1038363ab99037b7329760611b608082015260a00190565b60208082526024908201527f496e76616c6964207472616e73616374696f6e20696e636c7573696f6e20707260408201526337b7b31760e11b606082015260800190565b60208082526028908201527f496e76616c696420706f73742d737461746520726f6f7420696e636c7573696f6040820152673710383937b7b31760c11b606082015260800190565b6020808252604c908201527f5072652d737461746520726f6f7420676c6f62616c20696e646578206d75737460408201527f20657175616c20746f20746865207472616e73616374696f6e20726f6f74206760608201526b3637b130b61034b73232bc1760a11b608082015260a00190565b60208082526030908201527f5374617465207472616e736974696f6e20686173206e6f74206265656e20707260408201526f37bb32b710333930bab23ab632b73a1760811b606082015260800190565b60208082526027908201527f496e76616c6964207072652d737461746520726f6f7420696e636c7573696f6e60408201526610383937b7b31760c91b606082015260800190565b600060208252610c656020830184611188565b60006080825285516080830152602086015160a083015260408601516002811061163857fe5b60c083015260608601516001600160a01b031660e0830152608086015161166361010084018261114f565b5060a086015161012083015260c086015160e061014084015261168a61016084018261115c565b9050828103602084015261169e818761121b565b905082810360408401526116b28186611188565b905082810360608401526116c681856111c5565b979650505050505050565b60405181810167ffffffffffffffff811182821017156116ed57fe5b604052919050565b60005b838110156117105781810151838201526020016116f8565b8381111561171f576000848401525b50505050565b6001600160a01b038116811461173a57600080fd5b50565b801515811461173a57600080fdfea2646970667358221220d5dc2a42c875765178976d1988d00ffd806a5dd5d5e646dcec12318b4b29b42564736f6c63430007060033",
  "devdoc": {
    "details": "The Fraud Verifier contract coordinates the entire fraud proof verification process.  If the fraud proof was successful it prunes any state batches from State Commitment Chain which were published after the fraudulent state root.  Compiler used: solc Runtime target: EVM",
    "kind": "dev",
    "methods": {
      "constructor": {
        "params": {
          "_libAddressManager": "Address of the Address Manager."
        }
      },
      "finalizeFraudVerification(bytes32,(uint256,bytes32,uint256,uint256,bytes),(uint256,bytes32[]),bytes32,bytes32,(uint256,bytes32,uint256,uint256,bytes),(uint256,bytes32[]))": {
        "params": {
          "_postStateRoot": "State root after the fraudulent transaction.",
          "_postStateRootBatchHeader": "Batch header for the provided post-state root.",
          "_postStateRootProof": "Inclusion proof for the provided post-state root.",
          "_preStateRoot": "State root before the fraudulent transaction.",
          "_preStateRootBatchHeader": "Batch header for the provided pre-state root.",
          "_preStateRootProof": "Inclusion proof for the provided pre-state root.",
          "_txHash": "The transaction for the state root"
        }
      },
      "getStateTransitioner(bytes32,bytes32)": {
        "params": {
          "_preStateRoot": "State root to query a transitioner for."
        },
        "returns": {
          "_transitioner": "Corresponding state transitioner contract."
        }
      },
      "initializeFraudVerification(bytes32,(uint256,bytes32,uint256,uint256,bytes),(uint256,bytes32[]),(uint256,uint256,uint8,address,address,uint256,bytes),(bool,uint256,uint256,uint256,bytes),(uint256,bytes32,uint256,uint256,bytes),(uint256,bytes32[]))": {
        "params": {
          "_preStateRoot": "State root before the fraudulent transaction.",
          "_preStateRootBatchHeader": "Batch header for the provided pre-state root.",
          "_preStateRootProof": "Inclusion proof for the provided pre-state root.",
          "_transaction": "OVM transaction claimed to be fraudulent.",
          "_transactionBatchHeader": "Batch header for the provided transaction.",
          "_transactionProof": "Inclusion proof for the provided transaction.",
          "_txChainElement": "OVM transaction chain element."
        }
      }
    },
    "title": "OVM_FraudVerifier",
    "version": 1
  },
  "userdoc": {
    "kind": "user",
    "methods": {
      "finalizeFraudVerification(bytes32,(uint256,bytes32,uint256,uint256,bytes),(uint256,bytes32[]),bytes32,bytes32,(uint256,bytes32,uint256,uint256,bytes),(uint256,bytes32[]))": {
        "notice": "Finalizes the fraud verification process."
      },
      "getStateTransitioner(bytes32,bytes32)": {
        "notice": "Retrieves the state transitioner for a given root."
      },
      "initializeFraudVerification(bytes32,(uint256,bytes32,uint256,uint256,bytes),(uint256,bytes32[]),(uint256,uint256,uint8,address,address,uint256,bytes),(bool,uint256,uint256,uint256,bytes),(uint256,bytes32,uint256,uint256,bytes),(uint256,bytes32[]))": {
        "notice": "Begins the fraud verification process."
      }
    },
    "version": 1
  },
  "storageLayout": {
    "storage": [
      {
        "astId": 12337,
        "contract": "contracts/optimistic-ethereum/OVM/verification/OVM_FraudVerifier.sol:OVM_FraudVerifier",
        "label": "libAddressManager",
        "offset": 0,
        "slot": "0",
        "type": "t_contract(Lib_AddressManager)12330"
      },
      {
        "astId": 8900,
        "contract": "contracts/optimistic-ethereum/OVM/verification/OVM_FraudVerifier.sol:OVM_FraudVerifier",
        "label": "transitioners",
        "offset": 0,
        "slot": "1",
        "type": "t_mapping(t_bytes32,t_contract(iOVM_StateTransitioner)11498)"
      }
    ],
    "types": {
      "t_bytes32": {
        "encoding": "inplace",
        "label": "bytes32",
        "numberOfBytes": "32"
      },
      "t_contract(Lib_AddressManager)12330": {
        "encoding": "inplace",
        "label": "contract Lib_AddressManager",
        "numberOfBytes": "20"
      },
      "t_contract(iOVM_StateTransitioner)11498": {
        "encoding": "inplace",
        "label": "contract iOVM_StateTransitioner",
        "numberOfBytes": "20"
      },
      "t_mapping(t_bytes32,t_contract(iOVM_StateTransitioner)11498)": {
        "encoding": "mapping",
        "key": "t_bytes32",
        "label": "mapping(bytes32 => contract iOVM_StateTransitioner)",
        "numberOfBytes": "32",
        "value": "t_contract(iOVM_StateTransitioner)11498"
      }
    }
  }
}